:100000000C940F020C94BE310C94EF310C942032FE
:100010000C9451320C9482320C94B3320C94E4322E
:100020000C9415330C94E81F0C9410200C94382079
:100030000C9440020C94261E0C9440020C94400236
:100040000C9440020C9440020C9440020C94400228
:100050000C9440020C9440020C9440020C94153015
:100060000C9440020C942E140C941E150C94400217
:100070000C9440020C9440020C9440020C944002F8
:100080000C9440020C9440020C9440020C944002E8
:100090000C9462140C945D150C9440020C94400274
:1000A0000C9440020C9440020C9440020C944002C8
:1000B0000C9440020C9440020C9440020C944002B8
:1000C0000C9440020C9440020C9440020C94961440
:1000D0000C949C150C9440020C94CA140C94DB15DF
:1000E0000C944002C412C712BA12BE12FE12CB12F6
:1000F000CF12D512D912DD12E312E712EB12FE1263
:10010000F112F512F912B726BC26C126CB264427D8
:10011000D526DD26E526EF26F926032712271C27FC
:100120004427262730273A2770313A3142314E3161
:100130005B317C318931B031A631A831AA31AC3183
:10014000B231B4310C945B310C943A310C94AC3133
:100150000C94C1260C94EB340C94E3120C94D2331F
:100160000C944E310C94F4330C94BA120C94C712C4
:100170000C94CF120C94F9260C94B0310C94B43139
:100180000C9494130C94FE120C94BC260C94F11253
:100190000C94E7120C947B1F0C94D91E0C94A4139E
:1001A0000C94D5260C94EF260C941C270C94861ED8
:1001B0000C94B7260C94EB120C942A250C948931DC
:1001C0000C94CB120C94F9120C94F5120C94442755
:1001D0000C947C310C94A8310C94AA310C9470319D
:1001E0000C94C4120C943A270C9403270C94C11E4F
:1001F0000C9407220C94A71E0C9465260C94B23123
:100200000C94E5260C94C0130C9412270C94DD1268
:100210000C94CB260C9426270C94D9120C943027DE
:100220000C94D5120C94BE120C94E0130C94A631CD
:100230000C94EB130C9442310C94DD2641540D0ABE
:100240000041542B434E554D0D0A00667265650002
:100250004C4F47494E0050415353000000090A02D9
:10026000080B0C0D0706030401000000000000004D
:10027000000000000000000000000000000000007E
:100280000000000000000011100F0000000000003E
:10029000000000000000000000000000000000005E
:1002A0000001021020200808102040102040800289
:1002B00001020108040201010204081020408080AC
:1002C0004020100804020180040201804020100830
:1002D0000402010804020101020408102040800108
:1002E00002040810204080050505050705080808D8
:1002F00008020202020A0A080804040404010101B7
:1003000001010101010303030303030303040707BE
:10031000070C0C0C0C0C0C0C0C020202020606065C
:1003200006060606060B0B0B0B0B0B0B0B00002037
:10033000002300260029002C002F003200000100BD
:100340000003010601090100002200250028002BFE
:10035000002E003100340002010000050108010BED
:100360000100002100240027002A002D0030003366
:100370000001010000040107010A010200C201009E
:100380000100110011000C0000E100000A0025002E
:1003900025002100009600001900390039003600C0
:1003A000127A00001F0046004600440080700000E2
:1003B00022004D004D004A00004B00003600750041
:1003C00075007200403800004A009C009C009900B3
:1003D000802500007200EC00EC00E900C012000073
:1003E000E900DA01DA01D70160090000D701B6039C
:1003F000B603B303B0040000B3036E076E076B07C8
:10040000580200006E07DC0EDC0ED80E2C01000036
:10041000DC0EC11DC11DBE1DD233F433EB341124DB
:100420001FBECFEFD1E2DEBFCDBF00E00CBF19E0B1
:10043000A0E0B2E0EAE2FEE700E00BBF02C00790F6
:100440000D92AC39B107D9F723E1ACE9B9E001C0AD
:100450001D92AF31B207E1F712E0CFE0D2E000E049
:1004600006C021970109802FFE010E946335CC3020
:10047000D10780E00807A9F70E9446330C94133F88
:100480000C940000CF93DF93EC0161E172E08150A6
:100490009F4F0E94FC3A61E172E0CE01805F9E4F67
:1004A0000E94FC3A61E172E0CE01815E9E4F0E94A3
:1004B000FC3A61E172E0CE018F5D9E4F0E94FC3AF2
:1004C00061E172E0CE01805D9E4F0E94FC3A61E1E5
:1004D00072E0CE018E5C9E4F0E94FC3A61E172E0B8
:1004E000CE01885C9E4F0E94FC3A61E172E0CE0131
:1004F000825C9E4F0E94FC3A61E172E0CE01885B13
:100500009E4F0E94FC3A61E172E0CE018E5A9E4FEE
:10051000DF91CF910C94FC3A0C9442029C012E5A2C
:100520003E4F3F932F932CE032E03F932F939C015B
:10053000285B3E4F3F932F9320E132E03F932F9370
:100540009C01225C3E4F3F932F9323E132E03F9387
:100550002F939C01285C3E4F3F932F9328E132E07C
:100560003F932F939C012E5C3E4F3F932F932BE1A3
:1005700032E03F932F939C01205D3E4F3F932F939A
:100580002FE132E03F932F939C012F5D3E4F3F932D
:100590002F9324E232E03F932F939C01215E3E4F44
:1005A0003F932F9328E232E03F932F939C01205FEB
:1005B0003E4F3F932F932DE232E03F932F939C01C8
:1005C00021503F4F3F932F9321E332E03F932F93EE
:1005D0002FE433E03F932F939F938F930E940B3C24
:1005E0008DB79EB78C960FB6F8949EBF0FBE8DBF89
:1005F0000895FB01319680E09081292F2F7D2A30CC
:1006000059F0992351F09F01261B370B23353105F3
:1006100024F489273196F0CF089580E00895CF9291
:10062000DF92EF92FF920F931F93CF93DF93CDB79B
:10063000DEB7C456D1090FB6F894DEBF0FBECDBFEA
:100640008C016B01FB0101900020E9F73197E61B5B
:10065000F70B30E020E0832F90E08E179F0748F4DF
:10066000D601A80FB91F8C918C3209F42F5F3F5F20
:10067000F2CF2C3019F063E372E032C0D6018C91D6
:10068000843291F065E472E0CE0101960E94312837
:1006900061E0CE0101960E948B08CE0101960E9476
:1006A000C3278EEF9FEF44C1D60116968C918C32F2
:1006B00091F06AE572E0CE0101960E94312861E076
:1006C000CE0101960E948B08CE0101960E94C3279D
:1006D0008DEF9FEF2DC1E335F10590F06FE672E0ED
:1006E000CE0101960E94312861E0CE0101960E9460
:1006F0008B08CE0101960E94C3278FEF9FEF18C190
:10070000B601C8010E94F9021F928F9388E892E017
:100710009F938F937E01B2E6EB0EF11CFF92EF9256
:100720000E940B3C0F900F900F900F900F900F9026
:1007300050E040E0A0E3652F70E0F601019000205A
:10074000E9F79F012C193D0922503109F601E60F06
:10075000F71F842F90E06217730710F5308121E0B6
:10076000240F3C3299F461816C3281F4E1E0F0E0D5
:10077000EC0FFD1FE80FF91F6083E1E0F0E0EC0FE4
:10078000FD1FE20FF11DA0834E5F08C0E1E0F0E025
:10079000EC0FFD1FE80FF91F3083422F5F5FCBCFB7
:1007A000A1E0B0E0AC0FBD1FA80FB91F20812C93B2
:1007B0006DE872E0CE0101960E94B13A6DE872E0F8
:1007C00080E090E00E94B13ABC01C80181509F4F87
:1007D0000E94FC3A6DE872E080E090E00E94B13A3D
:1007E000BC01C801825F9E4F0E94FC3A6DE872E036
:1007F00080E090E00E94B13ABC01C801805F9E4F4A
:100800000E94FC3A6DE872E080E090E00E94B13A0C
:10081000BC01C801815E9E4F0E94FC3A6DE872E007
:1008200080E090E00E94B13ABC01C8018F5D9E4F0C
:100830000E94FC3A6DE872E080E090E00E94B13ADC
:10084000BC01C801805D9E4F0E94FC3A6DE872E0D9
:1008500080E090E00E94B13ABC01C8018E5C9E4FDE
:100860000E94FC3A6DE872E080E090E00E94B13AAC
:10087000BC01C801885C9E4F0E94FC3A6DE872E0A2
:1008800080E090E00E94B13ABC01C801825C9E4FBA
:100890000E94FC3A6DE872E080E090E00E94B13A7C
:1008A000BC01C801885B9E4F0E94FC3A6DE872E073
:1008B00080E090E00E94B13ABC01C8018E5A9E4F80
:1008C0000E94FC3A6DE872E080E090E00E94B13A4C
:1008D000FC018081D801AC5ABE4F8C9311961C92BA
:1008E000928111969C938381F801E95AFE4F80838F
:1008F00031961082F7012081921303C091818917EC
:10090000A9F06FE872E0CE01855A9F4F0E9431280E
:1009100061E0CE01855A9F4F0E948B08CE01855A17
:100920009F4F0E94C3278CEF9FEF02C080E090E0B2
:10093000CC59DF4F0FB6F894DEBF0FBECDBFDF91AD
:10094000CF911F910F91FF90EF90DF90CF9008957E
:1009500090939D0980939C09089580919C099091A2
:100960009D09DC01ED91FC910480F581E02D199445
:100970008F929F92AF92BF92CF92DF92EF92FF92AF
:10098000CF93DF93EC010E945F304B015C0128EEB6
:1009900033E0DE010E947A356B017C01C0E0D0E0DB
:1009A0000E945F30DC01CB0188199909AA09BB09B3
:1009B000C816D906EA06FB0660F464EF71E080E031
:1009C00090E00E9490300E94AD04EC0118161906C8
:1009D0003CF7CE01DF91CF91FF90EF90DF90CF9069
:1009E000BF90AF909F908F9008950E94AD04892B87
:1009F00061F080919C0990919D09DC01ED91FC9141
:100A00000680F781E02D1995F0CF08952F923F923F
:100A10004F925F926F927F928F929F92AF92BF920E
:100A2000CF92DF92EF92FF920F931F93CF93DF93BA
:100A3000CDB7DEB728970FB6F894DEBF0FBECDBF97
:100A40009A8389838B017A0119010E945F304B01DF
:100A50005C019701A8EEB3E00E946B352B013C01CD
:100A6000C12CD12C760118861F82910140E050E004
:100A70002B833C834D835E830E94AD04892B01F15F
:100A800080919C0990919D09DC01ED91FC9106807B
:100A9000F781E02D1995382E0E945F306B017C01A3
:100AA0008F8198850196AF81B885E981FA81AE0F73
:100AB000BF1F3C92801791076CF598878F83DCCF1E
:100AC0002F813885201731072CF50E945F30DC011B
:100AD000CB0188199909AA09BB09481659066A0663
:100AE0007B06C0F00E945F30DC01CB018C199D09B0
:100AF000AE09BF092B813C814D815E8128173907E2
:100B00004A075B0708F0B8CFC114D104E104F1042F
:100B100009F4B2CF28960FB6F894DEBF0FBECDBF52
:100B2000DF91CF911F910F91FF90EF90DF90CF90C9
:100B3000BF90AF909F908F907F906F905F904F90FD
:100B40003F902F900895FC019F01281B390B261719
:100B5000370714F41192F8CF0895A0919C09B09131
:100B60009D09ED91FC9111970190F081E02D682F86
:100B7000CD011994A0919C09B0919D09ED91FC9132
:100B800011970190F081E02D682FCD0119940F93FA
:100B90001F93CF93DF93EC018C01FE0101900020A5
:100BA000E9F73197EC1BFD0BC8018C1B9D0B8E17D1
:100BB0009F0730F4F80181918F010E94AD05EDCFC0
:100BC000DF91CF911F910F910895CF93DF93FC0197
:100BD0002491EC012196222331F0FC0184910E94A2
:100BE000AD05CE01F4CFDF91CF910895CF93DF9380
:100BF000EC01CE01FE012491222331F02196FC016B
:100C000084910E94AD05F5CFDF91CF9108958AE1DF
:100C10000C94AD052F923F924F925F926F927F920C
:100C20008F929F92AF92BF92CF92DF92EF92FF92FC
:100C30000F931F93CF93DF93CDB7DEB72A970FB6ED
:100C4000F894DEBF0FBECDBF8C017C836B837A012D
:100C50001901FC0101900020E9F73197AF01481B11
:100C6000590B5A8349830E945F304B015C01970105
:100C7000A8EEB3E00E946B352B013C01C12CD12CB6
:100C800076011A861986910140E050E02D833E835B
:100C90004F8358870E94AD04892B51F180919C09A4
:100CA00090919D09DC01ED91FC910680F781E02D8A
:100CB0001995382EB0E28B1769F30E945F306B01F3
:100CC0007C01E985FA85E00FF11F8081381207C0A9
:100CD00029853A852F5F3F4F3A87298702C01A86B8
:100CE000198649855A8589819A814817590741F1A2
:100CF0000E945F30DC01CB0188199909AA09BB0960
:100D0000481659066A067B0610F480E020C00E944F
:100D10005F30DC01CB018C199D09AE09BF092D8123
:100D20003E814F815885281739074A075B0708F02D
:100D3000B1CFC114D104E104F10409F4ABCFE5CF84
:100D40004B815C81452B11F40E94F50481E02A96C9
:100D50000FB6F894DEBF0FBECDBFDF91CF911F91CC
:100D60000F91FF90EF90DF90CF90BF90AF909F904A
:100D70008F907F906F905F904F903F902F9008954D
:100D8000CF92DF92EF92FF920F931F93CF93DF9357
:100D9000EB017A0169010E94C7059801A601B7011C
:100DA000CE01DF91CF911F910F91FF90EF90DF90D7
:100DB000CF900C940A06CF92DF92EF92FF920F939E
:100DC0001F93CF93DF93EB017A0169010E94E50540
:100DD0009801A601B701CE01DF91CF911F910F912C
:100DE000FF90EF90DF90CF900C940A060F931F9323
:100DF0000CED15E025E030E040E050E06BE674E0FB
:100E00008CE392E00E94DB061F910F910895CF932F
:100E1000DF93EC016EE972E09E5F0E94FC3A6EE99E
:100E200072E0CE018B5F9D4F0E94FC3A6EE972E04A
:100E3000CE01865F9D4F0E94FC3A6EE972E0CE01C2
:100E4000815F9D4F0E94FC3A6EE972E0CE018C5E9C
:100E50009D4F0E94FC3A6EE972E0CE01875E9D4F85
:100E60000E94FC3A6EE972E0CE01825E9D4F0E94C4
:100E7000FC3A6EE972E0CE018D5D9D4F0E94FC3A16
:100E80006EE972E0CE01885D9D4F0E94FC3A6EE9EA
:100E900072E0CE01835D9D4F0E94FC3A6EE972E0E4
:100EA000CE018E5C9D4F0E94FC3A6EE972E0CE014D
:100EB000895C9D4F0E94FC3A6EE972E0CE01845C31
:100EC0009D4F0E94FC3A6EE972E0CE018F5B9D4F10
:100ED0000E94FC3A6EE972E0CE018A5B9D4F0E944F
:100EE000FC3A6EE972E0CE01855B9D4F0E94FC3AB0
:100EF0006EE972E0CE01805B9D4F0E94FC3A6EE984
:100F000072E0CE018B5A9D4F0E94FC3A6EE972E06E
:100F1000CE01865A9D4F0E94FC3A6EE972E0CE01E6
:100F2000815A9D4F0E94FC3A6EE972E0CE018C59C5
:100F30009D4F0E94FC3A6EE972E0CE0187599D4FA9
:100F40000E94FC3A6EE972E0CE0182599D4FDF911A
:100F5000CF910C94FC3A9C0122593D4F3F932F9323
:100F600023EA32E03F932F939C0127593D4F3F9353
:100F70002F9328EA32E03F932F939C012C593D4F49
:100F80003F932F932CEA32E03F932F939C01215AF9
:100F90003D4F3F932F9320EB32E03F932F939C01E3
:100FA000265A3D4F3F932F9329EA32E03F932F93E8
:100FB0009C012B5A3D4F3F932F9323EB32E03F93FD
:100FC0002F939C01205B3D4F3F932F9328EB32E002
:100FD0003F932F939C01255B3D4F3F932F932DEB28
:100FE00032E03F932F939C012A5B3D4F3F932F9319
:100FF00024EC32E03F932F939C012F5B3D4F3F93B6
:101000002F932AEC32E03F932F939C01245C3D4FB9
:101010003F932F932FEC32E03F932F939C01295C59
:101020003D4F3F932F9323ED32E03F932F939C014D
:101030002E5C3D4F3F932F9326ED32E03F932F934D
:101040009C01235D3D4F3F932F932EED32E03F9364
:101050002F939C01285D3D4F3F932F9329ED32E064
:101060003F932F939C012D5D3D4F3F932F932DED8B
:1010700032E03F932F939C01225E3D4F3F932F938D
:1010800021EE32E03F932F939C01275E3D4F3F932B
:101090002F9326EE32E03F932F939C012C5E3D4F21
:1010A0003F932F932EEE32E03F932F939C01215FCD
:1010B0003D4F3F932F9321EF32E03F932F939C01BD
:1010C000265F3D4F3F932F9325EF32E03F932F93C1
:1010D0009C012B5F3D4F3F932F932AEF32E03F93CC
:1010E0002F939C013E5F3F932F932DEF32E03F9370
:1010F0002F9321E033E03F932F939F938F930E9490
:101100000B3C8DB79EB7805A9F4F0FB6F8949EBF89
:101110000FBE8DBF08952091130A222361F066232C
:1011200029F0BC0188E49EE00C94C022BC0188E454
:101130009EE00C94522208950895CF92DF92EF9290
:10114000FF920F931F93CF93DF93CDB7DEB7CF52AC
:10115000D5400FB6F894DEBF0FBECDBF6BE873E08D
:101160009E012F5F3F4F7901C9010E94312861E044
:10117000C7010E948B08C7010E94C3278E010F5D23
:101180001C4F66E973E0C8010E94FC3A69E07AE00E
:10119000C8010E94DD3A6EE973E0C8010E94DD3AA1
:1011A00069E87CE0C8010E94DD3A6EE973E0C8019D
:1011B0000E94DD3A66E17AE0C8010E94DD3AF8015A
:1011C00001900020E9F7CF01801B910B01969F93BE
:1011D0008F9380EA93E09F938F936E013FEDC31A44
:1011E0003AEFD30ADF92CF920E940B3C85EA93E05C
:1011F0009F938F9385ED93E09F938F938DEE93E074
:101200009F938F9387E094E09F938F93FF92EF9249
:101210000E940B3C69E174E0C7010E94DD3AB6010F
:10122000C7010E94DD3A6AE274E0C7010E94DD3A1C
:10123000B801C7010E94DD3A6CE274E0C7010E9468
:10124000DD3A6FE274E0CE01875D9A4F0E9431284B
:1012500061E0CE01875D9A4F0E948B08CE01875DC9
:101260009A4F0E94C327B701CE01875D9A4F0E9413
:10127000312861E0CE01875D9A4F0E948B08CE0134
:10128000875D9A4F0E94C32764EF71E080E090E091
:101290000E9490300CE41DE125E030E040E050E099
:1012A00063ED76E08DE394E00E94C0060FB6F894FB
:1012B000DEBF0FBECDBF811103C06AE474E07EC003
:1012C00064EF71E080E090E00E949030C7010E94DE
:1012D000C70564EF71E080E090E00E9490300E94CA
:1012E000070668E873E180E090E00E94903060E0DB
:1012F00072E0C7010E94A30528EB3BE04AE050E002
:1013000060E072E0C7010E9406056DE574E0CE0161
:10131000875D9A4F0E94312861E0CE01875D9A4F28
:101320000E948B08CE01875D9A4F0E94C327B701A8
:10133000CE01875D9A4F0E94312861E0CE01875D22
:101340009A4F0E948B08CE01875D9A4F0E94C32757
:1013500069E574E0CE01875D9A4F0E94312861E013
:10136000CE01875D9A4F0E948B08CE01875D9A4F10
:101370000E94C32760ED77E080E090E00E9490300B
:1013800066E674E0C7010E942B3B892B19F06EE6DC
:1013900074E014C060E874E0CE01875D9A4F0E944B
:1013A000312861E0CE01875D9A4F0E948B08CE0103
:1013B000875D9A4F0E94C3276EE874E0CE01875D77
:1013C0009A4F0E94312861E0CE01875D9A4F0E94BA
:1013D0008B08CE01875D9A4F0E94C327C15DDA4F0B
:1013E0000FB6F894DEBF0FBECDBFDF91CF911F9136
:1013F0000F91FF90EF90DF90CF900895089508959A
:10140000089508950895089560E070E08FEF92E1E7
:101410000E940E30805D8093090A61E070E08FEFDA
:1014200092E10E940E30805D80930A0A62E070E0D3
:101430008FEF92E10E940E30805D80930B0A109234
:101440000C0A8091130A8823C1F06EE974E088E4E5
:101450009EE00E9487226091090A88E49EE00E9433
:10146000892260910A0A88E49EE00E9489226091A4
:101470000B0A88E49EE00C94E42208951F93CF9316
:10148000DF93CDB7DEB727970FB6F894DEBF0FBE58
:10149000CDBF40E855E260E070E088E49EE00E9445
:1014A0005E1640E855E260E070E086E29EE00E9451
:1014B0005E1686E29EE09093080A8093070A60E039
:1014C00082E00E94FF1264E670E080E090E00E94FB
:1014D000903082E00E946B13019721F481E08093A9
:1014E000130A02C01092130A6FEA74E0CE0101964B
:1014F0000E94312861E0CE0101960E948B08CE0146
:1015000001960E94C3270E94040A61E08091070AA5
:101510009091080A0E94A80415E069EC74E0CE01DD
:1015200001960E94312860E0CE0101960E948B084E
:10153000CE0101960E94C32762E370E080E090E054
:101540000E949030115049F727960FB6F894DEBFED
:101550000FBECDBFDF91CF911F9108950F931F93C1
:101560000CE41DE125E030E040E050E066E877E083
:101570008DEC94E00E94C006811102C080E02DC075
:1015800064EF71E080E090E00E9490300CE41DE197
:1015900025E030E040E050E066E877E08CED94E054
:1015A0000E94C006882351F364EF71E080E090E070
:1015B0000E94903025E030E040E050E066E877E0BF
:1015C0008CEE94E00E94C0068823C1F264EF71E0C3
:1015D00080E090E00E94903081E01F910F9108958B
:1015E000CF93DF93CDB7DEB727970FB6F894DEBF62
:1015F0000FBECDBF6BEF74E0CE0101960E94312883
:1016000061E0CE0101960E948B08CE0101960E94F6
:10161000C3270E94AE0A882319F06EE075E002C06D
:1016200069E275E0CE0101960E94312861E0CE01A9
:1016300001960E948B08CE0101960E94C32727962F
:101640000FB6F894DEBF0FBECDBFDF91CF910895E6
:101650000F931F930CE41DE125E030E040E050E0E3
:1016600066E877E084E495E00E94C00691E081118D
:1016700001C090E0892F1F910F910895CF93DF93C0
:10168000CDB7DEB727970FB6F894DEBF0FBECDBF3C
:1016900063E575E0CE0101960E94312861E0CE013C
:1016A00001960E948B08CE0101960E94C3270E94DA
:1016B000280B27960FB6F894DEBF0FBECDBFDF9183
:1016C000CF910895CF92DF92EF92FF920F931F93E5
:1016D000CF93DF93CDB7DEB76E970FB6F894DEBF2A
:1016E0000FBECDBF8C010E94F5048EE695E00E94EE
:1016F000C7056AE170E0CE0101960E94A3052CEDBA
:1017000035E045E050E06AE170E0CE0101960E94CC
:10171000060566E775E0CE0101960E942B3B009717
:1017200091F160E270E00E94E83A7C016C018FEF79
:10173000C81AD80A6CE270E0C6010E94E83ACD28C7
:10174000C9F04E2DF7012E2F241B319630E0E817FB
:10175000F90748F45081ABE1B0E0AC0FBD1FA20F18
:10176000B31F5C93F0CFEBE1F0E0EC0FFD1FE20F55
:10177000F31F1082CE014B960E94533AF8019183D9
:10178000808381E001C080E06E960FB6F894DEBFE2
:101790000FBECDBFDF91CF911F910F91FF90EF90C2
:1017A000DF90CF900895CF93DF93CDB7DEB7299721
:1017B0000FB6F894DEBF0FBECDBF6CE775E0CE016B
:1017C00001960E94312861E0CE0101960E948B08AB
:1017D000CE0101960E94C32719861886CE0108966D
:1017E0000E94620B688579854AE0CE0101960E94CD
:1017F000C72861E0CE0101960E948B08CE010196B8
:101800000E94C32729960FB6F894DEBF0FBECDBF46
:10181000DF91CF9108950F931F93CF93DF93CDB7AF
:10182000DEB7C959D1090FB6F894DEBF0FBECDBFE0
:101830008BE895E00E94C7050CE41DE125E030E04F
:1018400040E050E066E877E088E995E00E94C00655
:10185000882309F4E6C064EF71E080E090E00E9424
:10186000903025E030E040E050E066E877E085EA3F
:1018700095E00E94C006882309F4D6C064EF71E0A9
:1018800080E090E00E94903025E030E040E050E0C1
:1018900066E877E083EB95E00E94C00664EF71E0B4
:1018A00080E090E00E94903025E030E040E050E0A1
:1018B00066E877E083ED95E00E94C006882309F48E
:1018C000B6C064EF71E080E090E00E9490308EED51
:1018D00095E00E94C70560E270E0CE018F599F4FEE
:1018E0000E94A3052CED35E045E050E060E270E099
:1018F000CE018F599F4F0E94060564EF71E080E092
:1019000090E00E94903025E030E040E050E066E852
:1019100077E089EE95E00E94C006882309F48AC02A
:1019200064EF71E080E090E00E94903068EF75E035
:10193000CE018F599F4F0E942B3B892B09F07DC010
:101940008EEF95E00E94C70560E177E280E090E0CD
:101950000E94903060E670E0CE0101960E94A305DF
:101960002CED35E045E050E060E670E0CE010196F8
:101970000E9406056BE276E0CE018D569F4F0E94D5
:10198000312861E0CE018D569F4F0E948B08CE0119
:101990008D569F4F0E94C327BE016F5F7F4FCE01C0
:1019A0008D569F4F0E94312861E0CE018D569F4F8A
:1019B0000E948B08CE018D569F4F0E94C32761E382
:1019C00076E0CE0101960E942B3B892BA9F069E3BA
:1019D00076E0CE018D569F4F0E94312861E0CE0106
:1019E0008D569F4F0E948B08CE018D569F4F0E94AF
:1019F000C32780E090E023C066E476E0CE018D56F8
:101A00009F4F0E94312861E0CE018D569F4F0E946A
:101A10008B08CE018D569F4F0E94C32789EF9FEF01
:101A20000EC08EEF9FEF0BC08DEF9FEF08C08CEFC5
:101A30009FEF05C08BEF9FEF02C08AEF9FEFC75665
:101A4000DF4F0FB6F894DEBF0FBECDBFDF91CF9151
:101A50001F910F9108950F931F93CF93DF93CDB7ED
:101A6000DEB727970FB6F894DEBF0FBECDBF65E592
:101A700076E0CE0101960E94312861E0CE01019608
:101A80000E948B08CE0101960E94C32746E552E0D2
:101A900060E572E08BE492E00E940B0C8C0197FFF2
:101AA00025C064E776E0CE0101960E94312861E00E
:101AB000CE0101960E948B08CE0101960E94C32799
:101AC0004AE0B801CE0101960E94C72861E0CE012C
:101AD00001960E948B08CE0101960E94C32768EEF2
:101AE00073E080E090E00E949030D0CF6EE876E026
:101AF000CE0101960E94312861E0CE0101960E943C
:101B00008B08CE0101960E94C32727960FB6F89442
:101B1000DEBF0FBECDBFDF91CF911F910F91089512
:101B2000CF92DF92EF92FF920F931F93CF93DF93A9
:101B3000CDB7DEB7C750D2400FB6F894DEBF0FBEA8
:101B4000CDBF6C017B01161617060CF0A3C00CE488
:101B50001DE125E030E040E050E063ED76E08DE30C
:101B600094E00E94C00681110EC06AE474E0CE01C8
:101B700001960E94312861E0CE0101960E948B08F7
:101B8000CE0101965EC064EF71E080E090E00E94BB
:101B90009030C6010E94C70564EF71E080E090E0DC
:101BA0000E9490300E94070660E072E0CE0101962C
:101BB0000E94A30524E931E14FE050E060E072E0CB
:101BC000CE0101960E9406056DE574E0CE018F5F9F
:101BD0009D4F0E94312861E0CE018F5F9D4F0E9492
:101BE0008B08CE018F5F9D4F0E94C327BE016F5FA0
:101BF0007F4FCE018F5F9D4F0E94312861E0CE0163
:101C00008F5F9D4F0E948B08CE018F5F9D4F0E947A
:101C1000C32766E674E0CE0101960E942B3B892B18
:101C2000A9F06EE674E0CE018F5F9D4F0E943128CF
:101C300061E0CE018F5F9D4F0E948B08CE018F5FC8
:101C40009D4F0E94C32780E090E025C060E874E0CB
:101C5000CE018F5F9D4F0E94312861E0CE018F5FE2
:101C60009D4F0E948B08CE018F5F9D4F0E94C3271E
:101C70006EE874E0CE018F5F9D4F0E94312861E0D5
:101C8000CE018F5F9D4F0E948B08CE018F5F9D4FCD
:101C90000E94C327C701C95FDD4F0FB6F894DEBFAE
:101CA0000FBECDBFDF91CF911F910F91FF90EF90AD
:101CB000DF90CF9008958BE895E00C94C705EF92E4
:101CC000FF920F931F93CF93DF93CDB7DEB7279784
:101CD0000FB6F894DEBF0FBECDBF8C017B010E9412
:101CE000A3052CED35E045E050E0B701C8010E94A6
:101CF00006056DEA76E0CE0101960E94312861E08A
:101D0000CE0101960E948B08CE0101960E94C32746
:101D1000B801CE0101960E94312861E0CE01019602
:101D20000E948B08CE0101960E94C32762EC76E0E8
:101D3000CE0101960E94312861E0CE0101960E94F9
:101D40008B08CE0101960E94C327F8010190002064
:101D5000E9F7CF010197801B910B27960FB6F894F6
:101D6000DEBF0FBECDBFDF91CF911F910F91FF90CE
:101D7000EF9008950F931F93CF93DF93CDB7DEB706
:101D8000E2970FB6F894DEBF0FBECDBF81E492E0BC
:101D90000E94E50562E370E0CE0101960E94A30572
:101DA0002CED35E045E050E062E370E0CE010196B5
:101DB0000E94060568EF75E0CE0101960E942B3B5C
:101DC000892B19F010929E0920C065ED76E0CE01B6
:101DD00001960E942B3B8C0162E270E00E94E83A7F
:101DE0000115110591F0402FF8012E2F241B30E032
:101DF000E817F90730F45191D901A256B64F5C9318
:101E0000F4CFF901E256F64F1082E2960FB6F8943D
:101E1000DEBF0FBECDBFDF91CF911F910F9108950F
:101E2000CF93DF93CDB7DEB727970FB6F894DEBF19
:101E30000FBECDBF0E94BA0E69ED76E0CE010196CD
:101E40000E94312860E0CE0101960E948B08CE01ED
:101E500001960E94C3276EE979E0CE0101960E94A7
:101E6000312861E0CE0101960E948B08CE010196D7
:101E70000E94C32727960FB6F894DEBF0FBECDBFD2
:101E8000DF91CF9108950F931F93CF93DF93CDB739
:101E9000DEB7A0970FB6F894DEBF0FBECDBF60E2ED
:101EA00070E0CE0101960E94A30503E010E089EEE8
:101EB00096E00E94C7052CED35E045E050E060E279
:101EC00070E0CE0101960E94060564EF76E0CE0137
:101ED00001960E942B3B892B59F46CE271E080E063
:101EE00090E00E9490300150110909F780E001C094
:101EF00081E0A0960FB6F894DEBF0FBECDBFDF9194
:101F0000CF911F910F9108950F931F93CF930CE4DE
:101F10001DE125E030E040E050E066E877E081E058
:101F200097E00E94C006811102C0C0E025C00CE409
:101F30001DE125E030E040E050E066E877E084E431
:101F400095E00E94C006882381F325E030E040E060
:101F500050E066E877E086E097E00E94C0068823BC
:101F600021F30E94430FC82F8823F9F268EB7BE02E
:101F700080E090E00E9490308C2FCF911F910F91C4
:101F80000895CF93DF93CDB7DEB727970FB6F894B8
:101F9000DEBF0FBECDBF62E177E0CE0101960E94A9
:101FA000312861E0CE0101960E948B08CE01019696
:101FB0000E94C3270E94840F811116C062E377E05C
:101FC000CE0101960E94312861E0CE0101960E9467
:101FD0008B08CE0101960E94C32764EF71E080E078
:101FE00090E00E949030E6CF65E477E0CE01019664
:101FF0000E94312861E0CE0101960E948B08CE013B
:1020000001960E94C32727960FB6F894DEBF0FBE35
:10201000CDBFDF91CF910895CF93DF93EC0164E5BD
:1020200077E00E942B3B892B31F09A8981E0913433
:1020300019F0963509F080E0DF91CF910895CF93A4
:10204000DF93CDB7DEB727970FB6F894DEBF0FBE8C
:10205000CDBF6BE577E0CE0101960E94312860E0AC
:10206000CE0101960E948B08CE0101960E94C327E3
:102070000E94DE214AE0BC01CE0101960E94C728E1
:1020800061E0CE0101960E948B08CE0101960E946C
:10209000C32727960FB6F894DEBF0FBECDBFDF91E2
:1020A000CF910895CF93DF93CDB7DEB7C058D10954
:1020B0000FB6F894DEBF0FBECDBF87E697E00E9453
:1020C000C7052CED35E04AE050E060E870E0CE0155
:1020D00001960E94060566E777E0CE0101960E9410
:1020E0002B3B21E0892B09F420E0822FC058DF4FE1
:1020F0000FB6F894DEBF0FBECDBFDF91CF9108952C
:102100000F931F930E945210882389F00CE41DE165
:1021100025E030E040E050E060E877E08BE897E0D1
:102120000E94C00691E0811103C090E001C091E0DF
:10213000892F1F910F910895CF93DF93CDB7DEB70D
:1021400027970FB6F894DEBF0FBECDBF69E977E0E1
:10215000CE0101960E94312861E0CE0101960E94D5
:102160008B08CE0101960E94C3270E94801068E868
:1021700073E180E090E00E9490300E945B0E68EB7B
:102180007BE080E090E00E94903027960FB6F894B4
:10219000DEBF0FBECDBFDF91CF9108951F93CF93C8
:1021A000DF93CDB7DEB727970FB6F894DEBF0FBE2B
:1021B000CDBF8091130A882389F16CEE77E0CE01C0
:1021C00001960E94312861E0CE0101960E948B08A1
:1021D000CE0101960E94C32766EB77E088E49EE07B
:1021E0000E94D2226DEE77E088E49EE00E94D22227
:1021F00066E278E088E49EE00E94D2226FE578E013
:1022000088E49EE00E94D22268E978E088E49EE0BB
:102210000E94D22288E49EE00E949A221AE069EC91
:1022200074E0CE0101960E94312860E0CE01019653
:102230000E948B08CE0101960E94C32768EC70E0D3
:1022400080E090E00E949030115049F76CEE77E00A
:10225000CE0101960E94312861E0CE0101960E94D4
:102260008B08CE0101960E94C32727960FB6F894DB
:10227000DEBF0FBECDBFDF91CF911F9108950F93A9
:102280001F93CF93DF9386E29EE00E94E013C0E0AD
:10229000D0E011E002E080919C0990919D09DC0161
:1022A000ED91FC910480F581E02D1995892BC9F001
:1022B00080919C0990919D09DC01ED91FC91068033
:1022C000F781E02D19959091150A9923B1F020918D
:1022D000140A3FEF320F3093140A222341F0843264
:1022E00011F490E022C0FE01E355F64F1AC010929F
:1022F000150AC355D64F188218C0843251F0FE011A
:10230000E355F64F8A3251F41093150A0093140ADC
:1023100008C08093AD09C1E0D0E0BDCFC835D1057C
:1023200018F480832196B7CF1082892FDF91CF9147
:102330001F910F910895CF93DF93CDB7DEB7279705
:102340000FB6F894DEBF0FBECDBF0E943F118111C2
:1023500012C060ED78E0CE0101960E94312861E064
:10236000CE0101960E948B08CE0101960E94C327E0
:102370008FEF9FEF30C08DEA99E00E940C10811121
:1023800012C060EE78E0CE0101960E94312861E033
:10239000CE0101960E948B08CE0101960E94C327B0
:1023A0008EEF9FEF18C08091BF09813429F0109201
:1023B000AD098DEF9FEF0FC0ADEAB9E0FD01ED5A19
:1023C000F9408D918A32D1F7E355F64F138210927E
:1023D000060A80E090E027960FB6F894DEBF0FBEA5
:1023E000CDBFDF91CF910895EF92FF920F931F938E
:1023F000CF93DF93CDB7DEB727970FB6F894DEBF44
:102400000FBECDBF00E010E062EF78E0CE01019694
:102410000E94312861E0CE0101960E948B08CE0116
:1024200001960E94C3270E949B117C01892B09F40D
:102430005DC06CEB72E080E090E00E9490306CEE4A
:1024400077E0CE0101960E94312861E0CE0101962D
:102450000E948B08CE0101960E94C32762E079E0BA
:10246000CE0101960E94312860E0CE0101960E94C3
:102470008B08CE0101960E94C3274AE0B701CE0126
:1024800001960E94C72861E0CE0101960E948B0848
:10249000CE0101960E94C3276DEA79E0CE01019634
:1024A0000E94312861E0CE0101960E948B08CE0186
:1024B00001960E94C3276CEE77E0CE0101960E9440
:1024C000312861E0CE0101960E948B08CE01019671
:1024D0000E94C32768E873E180E090E00E9490309A
:1024E0000F5F1F4F0A30110509F08ECF68EE73E0C1
:1024F00080E090E00E9490300A30110519F069E107
:1025000079E002C06BE279E0CE0101960E943128A9
:1025100061E0CE0101960E948B08CE0101960E94D7
:10252000C3276DEA79E0CE0101960E94312861E06F
:10253000CE0101960E948B08CE0101960E94C3270E
:1025400027960FB6F894DEBF0FBECDBFDF91CF91B7
:102550001F910F91FF90EF90089590E0FC0131974B
:10256000E131F10508F04AC08827EE58FF4F8F4F40
:102570000C946335809180008F7703C08091800038
:102580008F7D80938000089584B58F7702C084B5D5
:102590008F7D84BD08958091B0008F7703C08091B6
:1025A000B0008F7D8093B0000895809190008F7768
:1025B00007C0809190008F7D03C080919000877F3D
:1025C0008093900008958091A0008F7707C080913C
:1025D000A0008F7D03C08091A000877F8093A00022
:1025E0000895809120018F7707C0809120018F7D11
:1025F00003C080912001877F809320010895CF93AD
:10260000DF9390E0FC01EF55FD4F2491FC01E9516F
:10261000FD4F8491882361F190E0880F991FFC01A0
:10262000EF59FC4FC591D491FC01E95BFC4FA5919A
:10263000B491611109C09FB7F894888120958223D5
:102640008883EC912E230BC0623061F49FB7F8941D
:102650003881822F809583238883EC912E2B2C93B5
:102660009FBF06C08FB7F894E8812E2B28838FBFB9
:10267000DF91CF9108951F93CF93DF93282F30E000
:10268000F901E55AFD4F8491F901EF55FD4FD491C1
:10269000F901E951FD4FC491CC23C9F0162F8111E6
:1026A0000E94AD12EC2FF0E0EE0FFF1FE95BFC4F34
:1026B000A591B4918FB7F894111105C09C91ED2F9D
:1026C000E095E92302C0EC91ED2BEC938FBFDF91F5
:1026D000CF911F910895CF93DF93282F30E0F90118
:1026E000E55AFD4F8491F901EF55FD4FD491F90161
:1026F000E951FD4FC491CC2391F081110E94AD129C
:10270000EC2FF0E0EE0FFF1FE35DFC4FA591B491BD
:10271000EC91ED2381E090E021F480E002C080E0C4
:1027200090E0DF91CF910895FC0124853585F90172
:10273000E058FF4F80819181329620813181821B48
:10274000930B8F7799270895DC011C96ED91FC91EE
:102750001D97DF01A058BF4F2D913C911197129604
:102760008D919C9111972817390739F08D919C9183
:10277000E80FF91F808190E008958FEF9FEF089593
:10278000FC01A485B585FD01E058FF4F2081318112
:102790003296808191812817390779F08081918163
:1027A000A80FB91F8C91208131812F5F3F4F2F7768
:1027B00033273183208390E008958FEF9FEF0895B2
:1027C000FC0181A1882329F0A489B5898C9186FF19
:1027D000FBCF11A208950F931F93CF93DF93FC01BA
:1027E000A685B7858D0100581F4FE8018881998122
:1027F00001968F779927AD014E575F4FEA012881E7
:10280000398182179307D1F3E80128813981A20F1A
:10281000B31F6C93A685B785A058BF4F11969C93A4
:102820008E93A689B7892C9181E090E0078C02C035
:10283000880F991F0A94E2F7822B8C9381E081A381
:102840000488F589E02D80818064808381E090E0B8
:10285000DF91CF911F910F91089508951F920F92CC
:102860000FB60F9211240BB60F922F933F934F93F5
:102870005F936F937F938F939F93AF93BF93EF93E8
:10288000FF938091C00082FD07C08091C60066E082
:1028900072E10E94DA3302C08091C600FF91EF918D
:1028A000BF91AF919F918F917F916F915F914F9168
:1028B0003F912F910F900BBE0F900FBE0F901F9066
:1028C000189508951F920F920FB60F9211240BB610
:1028D0000F922F933F934F935F936F937F938F93B9
:1028E0009F93AF93BF93EF93FF938091C80082FDB6
:1028F00007C08091CE006EEF70E10E94DA3302C013
:102900008091CE00FF91EF91BF91AF919F918F91F8
:102910007F916F915F914F913F912F910F900BBEDF
:102920000F900FBE0F901F90189508951F920F9251
:102930000FB60F9211240BB60F922F933F934F9324
:102940005F936F937F938F939F93AF93BF93EF9317
:10295000FF938091D00082FD07C08091D60066EF82
:102960007FE00E94DA3302C08091D600FF91EF91A0
:10297000BF91AF919F918F917F916F915F914F9197
:102980003F912F910F900BBE0F900FBE0F901F9095
:10299000189508951F920F920FB60F9211240BB63F
:1029A0000F922F933F934F935F936F937F938F93E8
:1029B0009F93AF93BF93EF93FF938091300182FD7C
:1029C00007C0809136016EEE7EE00E94DA3302C0CD
:1029D00080913601FF91EF91BF91AF919F918F91BF
:1029E0007F916F915F914F913F912F910F900BBE0F
:1029F0000F900FBE0F901F90189588E49EE00E94E4
:102A00009413892B11F00E942D1486E29EE00E94FF
:102A10009413892B11F00E94611484E09EE00E94BF
:102A20009413892B11F00E94951482EE9DE00E9470
:102A30009413892B11F00C94C91408951F920F92CE
:102A40000FB60F9211240BB60F922F933F938F93D3
:102A50009F93EF93FF932091021230910312809184
:102A60000412909105122817390731F48091C100A2
:102A70008F7D8093C10014C0E0910412F091051283
:102A8000EE57FE4E2081809104129091051201961E
:102A90008F77992790930512809304122093C60094
:102AA000FF91EF919F918F913F912F910F900BBECE
:102AB0000F900FBE0F901F9018951F920F920FB698
:102AC0000F9211240BB60F922F933F938F939F93E6
:102AD000EF93FF932091FA103091FB108091FC103E
:102AE0009091FD102817390731F48091C9008F7D2E
:102AF0008093C90014C0E091FC10F091FD10E658DD
:102B0000FF4E20818091FC109091FD1001968F77EF
:102B100099279093FD108093FC102093CE00FF9195
:102B2000EF919F918F913F912F910F900BBE0F903E
:102B30000FBE0F901F9018951F920F920FB60F9215
:102B400011240BB60F922F933F938F939F93EF9384
:102B5000FF932091F20F3091F30F8091F40F909139
:102B6000F50F2817390731F48091D1008F7D8093BC
:102B7000D10014C0E091F40FF091F50FEE58F04F32
:102B800020818091F40F9091F50F01968F7799270E
:102B90009093F50F8093F40F2093D600FF91EF915F
:102BA0009F918F913F912F910F900BBE0F900FBE71
:102BB0000F901F9018951F920F920FB60F9211242D
:102BC0000BB60F922F933F938F939F93EF93FF93A7
:102BD0002091EA0E3091EB0E8091EC0E9091ED0E6B
:102BE0002817390731F4809131018F7D80933101AD
:102BF00014C0E091EC0EF091ED0EE659F14F2081FA
:102C00008091EC0E9091ED0E01968F77992790931D
:102C1000ED0E8093EC0E20933601FF91EF919F9182
:102C20008F913F912F910F900BBE0F900FBE0F9081
:102C30001F9018958F929F92AF92BF92CF92DF9282
:102C4000EF92FF920F931F93CF93DF93CDB7DEB731
:102C5000FC011382128288EE93E0A0E0B0E084834E
:102C60009583A683B78385E699E0918380837587F2
:102C7000648757874687318B208B138B028BF58AAD
:102C8000E48AD78AC68AB18EA08E938E828E888976
:102C9000848F8989858F8A89868F8B89878F8C8994
:102CA00080A3DF91CF911F910F91FF90EF90DF9064
:102CB000CF90BF90AF909F908F900895CF92DF926A
:102CC000EF92FF920F931F93CF93DF93EC016A0172
:102CD0007B014115514E6105710509F1EC89FD89B2
:102CE00081E090E008A002C0880F991F0A94E2F7E3
:102CF000808360E079E08DE390E0A70196010E9477
:102D0000223589019A0101501109210931093695AD
:102D1000279517950795980101151041A8F0EC89A2
:102D2000FD89108260E874E88EE190E0A7019601C9
:102D30000E942235DA01C9010197A109B109B695AE
:102D4000A795979587959C01E889F9893083EA8949
:102D5000FB89208319A2EE89FF89408181E090E000
:102D60009C010C8C02C0220F331F0A94E2F7242B23
:102D70002083EE89FF8940819C010D8C02C0220FC7
:102D8000331F0A94E2F7242B2083EE89FF894081C8
:102D90009C010E8C02C0220F331F0A94E2F7242BF1
:102DA0002083EE89FF8920810F8C02C0880F991F34
:102DB0000A94E2F7809582238083DF91CF911F915F
:102DC0000F91FF90EF90DF90CF900895CF92DF9218
:102DD000EF92FF921F93CF93DF93EC016A017B0187
:102DE000122F4115514E6105710509F1EC89FD89DC
:102DF00081E090E008A002C0880F991F0A94E2F7D2
:102E0000808360E079E08DE390E0A70196010E9465
:102E10002235DA01C9010197A109B109B695A79533
:102E200097958795AC01411580E15807A8F0EC898A
:102E3000FD89108260E874E88EE190E0A7019601B8
:102E40000E942235BA01A901415051096109710955
:102E50007695679557954795E889F9895083EA896A
:102E6000FB894083E88DF98D1083EE89FF894081CD
:102E700081E090E09C010C8C02C0220F331F0A9469
:102E8000E2F7242B2083EE89FF8940819C010D8C81
:102E900002C0220F331F0A94E2F7242B2083EE890D
:102EA000FF8940819C010E8C02C0220F331F0A94BF
:102EB000E2F7242B2083EE89FF8920810F8C02C04A
:102EC000880F991F0A94E2F7809582238083DF910F
:102ED000CF911F91FF90EF90DF90CF900895CF9307
:102EE000DF93FC0186859785EC01C058DF4FDC013C
:102EF000AE57BF4F288139818D919C91119728172A
:102F00003907C1F7A689B7893C9181E090E0AC010F
:102F1000048C02C0440F551F0A94E2F7242F209519
:102F200023232C93A689B7893C91AC01058C02C060
:102F3000440F551F0A94E2F7242F209523232C9346
:102F4000A689B7893C91AC01068C02C0440F551F7D
:102F50000A94E2F7242F209523232C93A689B7897E
:102F60002C91078C02C0880F991F0A94E2F7809574
:102F700082238C9384859585FC01EE57FF4F208139
:102F80003181329731832083DF91CF91089581E0A1
:102F900008950F931F93CF93DF93EC010E945F304E
:102FA000688779878A879B87E881F9810680F7811E
:102FB000E02DCE01199597FF17C00E945F3008855C
:102FC00019852A853B85DC01CB01801B910BA20B67
:102FD000B30B0C811D812E813F8180179107A207C1
:102FE000B30710F38FEF9FEFDF91CF911F910F91F8
:102FF00008950F931F93CF93DF93EC010E945F30EE
:10300000688779878A879B87E881F9810084F185C1
:10301000E02DCE01199597FF17C00E945F300885FB
:1030200019852A853B85DC01CB01801B910BA20B06
:10303000B30B0C811D812E813F8180179107A20760
:10304000B30710F38FEF9FEFDF91CF911F910F9197
:103050000895CF93DF93EC01CE010E94F91797FDFD
:1030600011C08D32910571F09C01205331092A3035
:10307000310540F0E881F9810680F781E02DCE012D
:103080001995EACFDF91CF910895FC0144835583D0
:103090006683778308956F927F928F929F92AF920B
:1030A000BF92CF92DF92EF92FF920F931F93CF9335
:1030B000DF93DB01EC91E11102C081E040C03901F6
:1030C0004A016B015C01E12CF12CC0E0D0E0C501AC
:1030D0000E94C917181619068CF5F601EC0FFD1F92
:1030E0002081022E000C330B8217930711F0C0E0F1
:1030F000D0E0F601EC0FFD1F2081022E000C330BF7
:103100008217930721F42196C815D905B0F6011549
:10311000110589F0F301EE0DFF1D2081022E000C38
:10312000330B8217930739F4BFEFEB1AFB0AE01653
:10313000F10668F203C0E12CF12CC9CF80E0DF91E9
:10314000CF911F910F91FF90EF90DF90CF90BF90A4
:10315000AF909F908F907F906F9008950F931F93E3
:1031600000E010E020E030E00E944B181F910F912A
:1031700008950F931F939A01FA0101900020E9F737
:1031800031978F01041B150BFB0101900020E9F71B
:103190003197AF01461B570B0E944B181F910F919F
:1031A000089540E050E00C94B9188F929F92AF922E
:1031B000BF92CF92DF92FF920F931F93CF93DF9333
:1031C00000D01F92CDB7DEB78C0169830E94291809
:1031D000FC01698197FD4CC020E030E0A901F12C91
:1031E000C62E660FDD08EC15FD05F1F0ED32F10598
:1031F000C9F0CF01C0970A97B8F4AAE0B0E00E94E6
:1032000081354F01FF0FAA08BB08DC01CB01880DF7
:10321000991DAA1DBB1D9C01AD0120533109410917
:10322000510902C0FF24F394D801ED91FC9106806E
:10323000F781E02DC80129833A834B835C8319957C
:10324000C8010E94F917FC01C09729813A814B817E
:103250005C810A9740F2EC15FD0529F2FF2061F030
:1032600066277727CB01621B730B840B950B06C077
:1032700060E070E0CB0102C0CA01B9010F900F906D
:103280000F900F90DF91CF911F910F91FF90DF90E2
:10329000CF90BF90AF909F908F90089561E00C9475
:1032A000D5184F925F926F927F92BF92CF92DF922A
:1032B000EF92FF920F931F93CF93DF93EC01B62E03
:1032C0000E942918E82F87FD6BC0C12CD12C80E803
:1032D000E82E8FE3F82E412C512C320110E000E053
:1032E000EB1581F1ED3259F1EE3259F180ED8E0F8F
:1032F0008A3040F5AAE0B0E0A30192010E94813536
:103300004E2EEE0F550866087708AB01BC01440D40
:10331000551D661D771D2A013B0180E3481A51089F
:1033200061087108112371F02DEC3CEC4CEC5DE36D
:10333000C701B6010E9471376B017C0102C001E038
:1033400001C011E0E881F9810680F781E02DCE010E
:103350001995CE010E94F917E82F80ED8E0F8A3063
:1033600008F4BECFEE3209F4BBCFEB1102C0EB2D57
:10337000B7CFC301B201002339F0909580957095C5
:1033800061957F4F8F4F9F4F112339F00E94BC36BC
:10339000A70196010E94713706C00E94BC3603C087
:1033A00060E070E0CB01DF91CF911F910F91FF9012
:1033B000EF90DF90CF90BF907F906F905F904F9095
:1033C000089561E00C945119CF92DF92EF92FF9231
:1033D0000F931F93CF93DF936C017A018B01C0E0B1
:1033E000D0E0CE15DF0561F0C6010E94C91797FF36
:1033F00002C07E0105C0F80181938F012196F1CFB3
:10340000C701DF91CF911F910F91FF90EF90DF9057
:10341000CF900895AF92BF92CF92DF92EF92FF923A
:103420000F931F93CF93DF9321153105D1F07901CD
:103430005C016A01C0E0D0E0062F660F110BC501E8
:103440000E94C91797FF02C0CE010DC080179107D7
:10345000D9F3F60181936F012196CE15DF0579F737
:10346000F3CF80E090E0DF91CF911F910F91FF901B
:10347000EF90DF90CF90BF90AF9008950F931F9380
:10348000CF93DF93EC018B016CEE77E00E94312843
:10349000C8010E94C91797FD05C0682FCE010E9480
:1034A000C129F6CFCE01DF91CF911F910F910895E1
:1034B000EF92FF920F931F93CF93DF93EC017B0169
:1034C000042F6CEE77E00E943128C7010E94C917D3
:1034D000002E000C110B97FD0BC08017910741F0D7
:1034E000682FCE010E94C129C7010E94C917F3CFDE
:1034F000CE01DF91CF911F910F91FF90EF90089532
:103500003F924F925F926F927F928F929F92AF9273
:10351000BF92CF92DF92EF92FF920F931F93CF93C0
:10352000DF9300D01F92CDB7DEB729013A01909109
:103530000002981721F09F3F09F02BC304C0EBE76E
:10354000F3E0349004C180930002EBE7F3E0E491F0
:10355000EF3F09F41EC3E23009F480C074F5EE2396
:1035600009F45BC0E13009F0F1C0109280001092C4
:1035700081009091810098609093810090918100EA
:10358000916090938100282F30E0F901E951FD4FBF
:10359000E491F0E0EE0FFF1FE95BFC4F4591549181
:1035A0005093A8124093A712F901EF55FD4FE491F3
:1035B000E093A61233243394CCC0E43009F49EC0C7
:1035C0000CF474C0E53009F0C1C0109220011092D3
:1035D0002101909121019860909321019091210106
:1035E000916090932101482F50E0FA01E951FD4F7D
:1035F000E491F0E0EE0FFF1FE95BFC4F2591349161
:1036000030938C1220938B12FA01EF55FD4FE49109
:10361000E0938A12B5E03B2E9CC014BC15BC94B557
:10362000926094BD95B5916095BD282F30E0F90169
:10363000E951FD4FE491F0E0EE0FFF1FE95BFC4F15
:10364000459154915093AF124093AE12F901EF554A
:10365000FD4FE491E093AD12312C7BC01092B0008D
:103660001092B1009091B00092609093B000909150
:10367000B10091609093B100282F30E0F901E95139
:10368000FD4FE491F0E0EE0FFF1FE95BFC4F459129
:1036900054915093A1124093A012F901EF55FD4FA0
:1036A000E491E0939F1252E0352E53C010929000A7
:1036B0001092910090919100986090939100909158
:1036C0009100916090939100282F30E0F901E95129
:1036D000FD4FE491F0E0EE0FFF1FE95BFC4F4591D9
:1036E000549150939A1240939912F901EF55FD4F5E
:1036F000E491E093981223E0322E2BC01092A000A8
:103700001092A1009091A10098609093A1009091D7
:10371000A10091609093A100282F30E0F901E951B8
:10372000FD4FE491F0E0EE0FFF1FE95BFC4F459188
:1037300054915093931240939212F901EF55FD4F1B
:10374000E491E093911204E0302E03C03E2E37FC4A
:1037500020C28B0161E00E94FF124801A12CB12C14
:10376000832D8D7F09F0B4C060E072E18AE790E0BC
:10377000A50194010E94223529833A834B835C83FF
:1037800069017A0121E0C21AD108E108F1088FEF3E
:10379000C816D104E104F10409F008F44CC060E457
:1037A00072E48FE090E0A50194010E942235690146
:1037B0007A0191E0C91AD108E108F108E2E03E126D
:1037C00020C0FFEFCF16D104E104F10409F008F4A2
:1037D000DEC160E970ED83E090E0A50194010E94F4
:1037E000223569017A0181E0C81AD108E108F1089F
:1037F0009FEFC916D104E104F10409F0B8F583E0A4
:1038000064C0EFEFCE16D104E104F104B1F0A8F0EA
:1038100068E478EE81E090E0A50194010E942235F1
:1038200069017A01F1E0CF1AD108E108F1083320EB
:1038300009F453C1A3C181E001C082E03320A1F0AB
:1038400044C089819A81AB81BC812AE0B695A79555
:10385000979587952A95D1F76C017D01F1E0CF1AF4
:10386000D108E108F10885E085BDA2C068E478EEE2
:1038700081E090E0A50194010E94223569017A015E
:1038800081E0C81AD108E108F1089FEFC916D104F8
:10389000E104F10409F008F41EC164E274EF80E071
:1038A00090E0A50194010E94223569017A0181E02E
:1038B000C81AD108E108F1089FEFC916D104E10444
:1038C000F10411F008F02BC185E08093B10070C0C5
:1038D00060E072E18AE790E0A50194010E94223540
:1038E00069017A01F1E0CF1AD108E108F108C114A9
:1038F000D10421E0E206F10488F068E478EE81E08A
:1039000090E0A50194010E94223569017A0181E0CD
:10391000C81AD108E108F10883E001C081E091E014
:10392000391210C090918100987F892B809381007B
:10393000411451046104710409F03FC02FEF3FEFBF
:10394000A90171C0E3E03E120FC090919100987FF1
:10395000892B80939100411451046104710469F52D
:103960002FEF3FEFA90181C0F4E03F120FC090910B
:10397000A100987F892B8093A10041145104610418
:103980007104D9F42FEF3FEFA90181C025E0321275
:103990000FC090912101987F892B809321014114C0
:1039A00051046104710449F42FEF3FEFA90181C074
:1039B000411451046104710471F0D801AA0FBB1FB6
:1039C000A30192010E94813528EE33E040E050E0EF
:1039D0000E94223503C02FEF3FEFA90182E0381685
:1039E000A1F1831534F0332079F091E03916D9F044
:1039F000D0C0E4E03E1609F44AC03E16B4F1F5E04A
:103A00003F1609F456C0C5C0C7BC2093B01230930E
:103A1000B1124093B2125093B31280916E00826043
:103A200080936E00B6C0D0928900C0928800209327
:103A3000A9123093AA124093AB125093AC1280910A
:103A40006F00826080936F00A4C0C092B300209387
:103A5000A2123093A3124093A4125093A512809106
:103A6000700082608093700094C0D0929900C092E0
:103A7000980020939B1230939C1240939D12509378
:103A80009E128091710082608093710082C0D092FA
:103A9000A900C092A80020939412309395124093ED
:103AA00096125093971280917200826080937200F8
:103AB00070C0D0922901C092280120938D123093BA
:103AC0008E1240938F1250939012809173008260F7
:103AD000809373005EC084E0F8CE2FEFC216D1044D
:103AE000E104F104D1F0C8F062E17AE780E090E00F
:103AF000A50194010E94223569017A01E1E0CE1A04
:103B0000D108E108F108FFEFCF16D104E104F10478
:103B100011F008F096CE84E0A7CE83E0A5CE62E156
:103B20007AE780E090E0A50194010E9422356901C6
:103B30007A0181E0C81AD108E108F1089FEFC9169F
:103B4000D104E104F104C1F0B8F089819A81AB811C
:103B5000BC814AE0B695A795979587954A95D1F788
:103B60006C017D01E1E0CE1AD108E108F1083320B3
:103B700009F479CE87E0A9CE86E060CEEFEFCE16CD
:103B8000D104E104F10409F050F684E057CE82E05C
:103B90009CCE0F900F900F900F90DF91CF911F91BF
:103BA0000F91FF90EF90DF90CF90BF90AF909F90DC
:103BB0008F907F906F905F904F903F9008958230EC
:103BC000A9F028F4882349F0813051F00895843019
:103BD00009F1E8F0853009F1089510926E0008951A
:103BE00080916F008D7F80936F00089580917000A9
:103BF0008D7F8093700081E08093B0008091B10050
:103C0000887F84608093B1001092B3000895109271
:103C10007100089510927200089510927300089533
:103C2000CF93C82F809100028C1307C0EBE7F3E01D
:103C3000E4918FEF8093000201C0EFEF8E2F0E947E
:103C4000DF1D60E08C2FCF910C943B131F920F92DD
:103C50000FB60F9211240BB60F922F933F934F93F1
:103C60005F936F937F938F939F93AF93BF93EF93E4
:103C7000FF938091A2129091A312A091A412B091EF
:103C8000A512892B8A2B8B2B51F180919F12E091E9
:103C9000A012F091A1129081892780838091A212B5
:103CA0009091A312A091A412B091A5121816190612
:103CB0001A061B06C4F48091A2129091A312A0913F
:103CC000A412B091A5120197A109B1098093A21283
:103CD0009093A312A093A412B093A51204C0809154
:103CE00000020E94101EFF91EF91BF91AF919F9132
:103CF0008F917F916F915F914F913F912F910F9095
:103D00000BBE0F900FBE0F901F9018952091F612CA
:103D10003091F71228173907B9F49091B4128091B5
:103D2000B512981789F0E091B412F0E0EA54FD4E14
:103D300080812091B41230E02F5F3F4F2F733327E3
:103D40002093B41290E008958FEF9FEF0895209193
:103D5000F6123091F7122817390781F49091B412B6
:103D60008091B512981751F0E091B412F0E0EA5446
:103D7000FD4E8081082E000C990B08958FEF9FEF68
:103D800008952091F6123091F7122817390771F42F
:103D90008091B5122091B41290E0805C9F4F821BFD
:103DA000910960E470E00E940E35089580E090E093
:103DB00008952091F6123091F7122817390739F437
:103DC0008FB7F8941092B5121092B4128FBF089565
:103DD000DC015196ED91FC915297908150968C9117
:103DE00080958923808308952091F6123091F712EF
:103DF0002817390789F0FC01238D2E7F238F2FB7D9
:103E0000F8941092B5121092B4129093F712809316
:103E1000F6122FBF81E0089580E00895EF92FF929F
:103E20000F931F93CF93DF93EC018B8DEE85FF856E
:103E30009D8581FF04C08081982329F446C080813C
:103E4000982309F042C08B899C890E94C63488E07F
:103E5000E82EF12C10E001E08D899E890E94C63485
:103E6000EE85FF8590818D85892311F0102B03C08D
:103E7000802F80951823000F81E0E81AF10861F780
:103E80008F89988D0E94C6348B8D81FD109580910D
:103E9000B5122091B41290E001968F73992730E00B
:103EA0008217930779F0E091B512F0E0EA54FD4EE5
:103EB00010838091B51290E001968F7399278093BB
:103EC000B51203C08B8D81608B8FDF91CF911F91D5
:103ED0000F91FF90EF900895611102C00C94E81EBD
:103EE000DC015196ED91FC915297208150968C9176
:103EF000822B80830895DF92EF92FF920F931F939E
:103F0000CF93DF93EC01298D3A8D2115310529F4EA
:103F100081E090E09B838A834BC0162FDFB6F89434
:103F20006B8D669561700E946C1F898D9A8D0596C8
:103F30000E94C6348B8D98E0E92EF12C01E081FFC0
:103F400018C0802F812321F0CE010E94E81E04C0FA
:103F500061E0CE010E946C1F898D9A8D0E94C6344B
:103F6000000F81E0E81AF10861F7CE010E94E81E17
:103F700018C0802F812329F061E0CE010E946C1FC0
:103F800003C0CE010E94E81E898D9A8D0E94C6341E
:103F9000000F81E0E81AF10861F761E0CE010E94AC
:103FA0006C1FDFBE898D9A8D0E94C63421E030E0FF
:103FB000C901DF91CF911F910F91FF90EF90DF909A
:103FC0000895FC01A685B7859C9185858923089570
:103FD0001F920F920FB60F9211240BB60F922F93D0
:103FE0003F934F935F936F937F938F939F93AF9381
:103FF000BF93EF93FF930E94CD34FF91EF91BF9158
:10400000AF919F918F917F916F915F914F913F9170
:104010002F910F900BBE0F900FBE0F901F90189511
:104020001F920F920FB60F9211240BB60F922F937F
:104030003F934F935F936F937F938F939F93AF9330
:10404000BF93EF93FF930E94CD34FF91EF91BF9107
:10405000AF919F918F917F916F915F914F913F9120
:104060002F910F900BBE0F900FBE0F901F901895C1
:104070001F920F920FB60F9211240BB60F922F932F
:104080003F934F935F936F937F938F939F93AF93E0
:10409000BF93EF93FF930E94CD34FF91EF91BF91B7
:1040A000AF919F918F917F916F915F914F913F91D0
:1040B0002F910F900BBE0F900FBE0F901F90189571
:1040C0001F93CF93DF93EC01162F61E0812F0E94A5
:1040D000FF1261E0812F0E943B13612F70E0FB0112
:1040E000EF55FD4FE491E88BFB01E951FD4FE49161
:1040F000F0E0EE0FFF1FE95BFC4F859194919A8BE6
:10410000898BDF91CF911F9108951F93CF93DF93F8
:10411000EC01162F60E0812F0E94FF128B8D81FD34
:1041200004C061E0812F0E943B131C87612F70E067
:10413000FB01EF55FD4FE491ED87FB01E951FD4F88
:10414000E491F0E0EE0FFF1FE35DFC4F8591949149
:104150009F878E87DF91CF911F9108951F93CF93F3
:10416000DF93EC01162F1B821A8288EE93E0A0E009
:10417000B0E08C839D83AE83BF8385E799E099830C
:1041800088831C8A1B8A1E8A1D8A188E1F8A1A8E93
:10419000198E8B8D8E7F20FB81F98B8F642FCE0142
:1041A0000E946020612FCE01DF91CF911F910C946E
:1041B0008520CF92DF92EF92FF92CF93DF93EC01B5
:1041C0001A8E198E188E1F8A1E8A1D8A8CE793E01C
:1041D00020E030E0FC01C590D590E590F490C41645
:1041E000D506E606F70619F54CE0429FC001439F4D
:1041F000900D1124FC01E058FC4F259134913C8B2B
:104200002B8BFC01EE57FC4F259134913E8B2D8B6F
:10421000FC01EC57FC4F25913491388F2F8BFC011A
:10422000EA57FC4F859194919A8F898F09C02F5F2F
:104230003F4F0C962D30310509F0CCCF1C8A1B8ADC
:104240008F89988D892B09F459C08C8526EF280F0A
:10425000243048F09EEC980F943028F092EC980FA0
:10426000983008F047C090916800243018F08E53C1
:10427000883010F081E001C084E0892B80936800D1
:104280002C8596EF920F943058F08EEC820F84308C
:1042900038F082EC820F883040F0A0E0B0E007C038
:1042A000ABE6B0E0EBE6F0E006C0ADE6B0E08830AB
:1042B00070F5EDE6F0E08081943010F426500BC0EC
:1042C000223379F0233379F0243379F092EC920F92
:1042D000983068F4292F91E001C0990F2A95EAF7E8
:1042E00007C098E005C094E003C092E001C091E0EF
:1042F000982B9C93898D9A8D0E94C634CE01DF91B4
:10430000CF91FF90EF90DF90CF900C94F41EE0E0FF
:10431000F0E0D1CFFC01948586EF890F843048F01E
:104320002EEC290F243028F022EC290F283030F011
:104330000895EBE6F0E0ABE6B0E004C0EDE6F0E0B7
:10434000ADE6B0E03C91843018F42AEF290F0BC0A1
:10435000923389F0933389F0943389F082EC890F9A
:10436000883078F4282F81E090E001C0880F2A95EA
:10437000EAF7809507C087EF05C08BEF03C08DEF8C
:1043800001C08EEF83238083089525E739E0FC0187
:10439000318320830C948A21E0911D13F0911E1328
:1043A00080E090E0309749F0029620813181820FC1
:1043B000931F0280F381E02DF5CF08950F931F9393
:1043C000CF93DF931F921F92CDB7DEB780911B135F
:1043D00090911C138E010F5F1F4F009729F40F510E
:1043E00013411A8309830AC0081B190B1A83098316
:1043F0000E94CC21800F911F9A83898389819A81A1
:104400000F900F90DF91CF911F910F910895CF9250
:10441000DF92EF92FF920F931F93CF93DF936C0184
:10442000EB017B01E40EF51E00E010E0CE15DF0588
:1044300061F06991D601ED91FC910190F081E02D40
:10444000C6011995080F191FF1CFC801DF91CF914F
:104450001F910F91FF90EF90DF90CF900895EF9212
:10446000FF920F931F93CF93DF937C01FB0100E03A
:1044700010E06491EF012196662361F0D701ED9180
:10448000FC910190F081E02DC7011995080F191FCB
:10449000FE01EFCFC801DF91CF911F910F91FF90E7
:1044A000EF900895AF92BF92CF92DF92EF92FF927A
:1044B0000F931F93CF93DF936C017B01C0E0D0E09B
:1044C00000E010E0D70114968D919C911597C817C4
:1044D000D90788F4D601ED91FC91A080B180BE018E
:1044E000C7010E94702C682FC601F5011995080FAD
:1044F000191F2196E7CFC801DF91CF911F910F912E
:10450000FF90EF90DF90CF90BF90AF9008950C9404
:10451000D634DC01ED91FC910190F081E02D1994ED
:10452000DB01ED91FC9111970190F081E02DBC0130
:10453000CD0119940F931F93CF93DF93EC016DE09E
:104540000E9489228C016AE0CE010E948922800F9C
:10455000911FDF91CF911F910F9108950F931F939A
:10456000CF93DF93EC010E942F228C01CE010E9499
:104570009A22800F911FDF91CF911F910F91089583
:104580000F931F93CF93DF93EC010E9452228C0173
:10459000CE010E949A22800F911FDF91CF911F912F
:1045A0000F9108950F931F93CF93DF93EC010E9417
:1045B000D6348C01CE010E949A22800F911FDF9188
:1045C000CF911F910F9108950F931F93CF93DF9376
:1045D000EC010E9489228C01CE010E949A22800F58
:1045E000911FDF91CF911F910F9108950F931F930A
:1045F000CF93DF93EC010E9490228C01CE010E94A8
:104600009A22800F911FDF91CF911F910F910895F2
:104610008F929F92AF92BF92CF92DF92EF92FF92D2
:104620000F931F93CF93DF93CDB7DEB7A1970FB64C
:10463000F894DEBF0FBECDBF6C01142FE52FCB0168
:10464000022F19A2223008F40AE07E0121E2E20ED4
:10465000F11C802E912CA12CB12C612F7E2FA50155
:1046600094010E942235029F1019112481E0E81A5A
:10467000F1081A3014F4105D01C0195CF7011083C1
:10468000122FE32FCA01232B242B252B31F7B7013F
:10469000C6010E94D634A1960FB6F894DEBF0FBEB5
:1046A000CDBFDF91CF911F910F91FF90EF90DF90E1
:1046B000CF90BF90AF909F908F900895CF92DF9250
:1046C000EF92FF920F931F93CF93DF93EC016A0158
:1046D0007B012115310579F4E881F9810190F081A0
:1046E000E02D642FDF91CF911F910F91FF90EF90FC
:1046F000DF90CF9019942A303105E9F477FF1AC082
:104700006DE20E9489228C0144275527BA014C1979
:104710005D096E097F092AE0CE010E940823800FFF
:10472000911FDF91CF911F910F91FF90EF90DF903C
:10473000CF9008952AE0B701A601CE01DF91CF9175
:104740001F910F91FF90EF90DF90CF900C94082372
:104750009A01AB01770F660B770B0C945E230F93D6
:104760001F93CF93DF93EC019A01AB01770F660B98
:10477000770B0E945E238C01CE010E949A22800F4B
:10478000911FDF91CF911F910F9108950F931F9368
:10479000CF93DF93EC010E945E238C01CE010E9437
:1047A0009A22800F911FDF91CF911F910F91089551
:1047B0002115310541F4DC01ED91FC910190F0816E
:1047C000E02D642F19940C9408239A01462F50E091
:1047D00060E070E00C94D8230F931F93CF93DF9386
:1047E000EC019A01462F50E060E070E00E94D8236F
:1047F0008C01CE010E949A22800F911FDF91CF91F0
:104800001F910F9108959A01AB0160E070E00C9444
:10481000D8230F931F93CF93DF93EC019A01AB0141
:1048200060E070E00E94D8238C01CE010E949A22A1
:10483000800F911FDF91CF911F910F9108950F93DA
:104840001F93CF93DF93EC010E94D8238C01CE01FC
:104850000E949A22800F911FDF91CF911F910F919B
:1048600008954F925F926F927F928F929F92AF9234
:10487000BF92CF92DF92EF92FF92CF93DF93EC0142
:104880006A017B01B22E9A01AB01C701B6010E94F9
:10489000DE37882319F061E879E027C02601370167
:1048A000E89477F82FEF3FEF4FE75FE7C301B201DE
:1048B0000E94DE3781110DC02FEF3FEF4FE75FE71A
:1048C000C301B2010E940D3618161CF465E879E0A8
:1048D0000CC02FEF3FEF4FE75FE4C701B6010E9426
:1048E0006C3718169CF469E879E0CE01DF91CF911E
:1048F000FF90EF90DF90CF90BF90AF909F908F9000
:104900007F906F905F904F900C94D6342FEF3FEFD5
:104910004FE75FECC701B6010E940D3687FDE3CF7C
:1049200020E030E0A901C701B6010E940D3687FFE3
:104930000AC06DE2CE010E9489224C01F7FAF09480
:10494000F7F8F09402C0812C912CA12C60E070E06B
:1049500080E09FE3AB1441F020E030E040E251E41E
:104960000E941236A394F6CF9B01AC01C701B60199
:104970000E94A1352B013C010E948B366B017C010A
:104980000E94BA369B01AC01C301B2010E94A0355E
:104990002B013C012AE0B701A601CE010E940823A9
:1049A0007C01E80CF91CBB2039F06CE675E0CE0107
:1049B0000E94D634E80EF91EDB2CDD2039F120E010
:1049C00030E040E251E4C301B2010E9471372B0193
:1049D0003C010E9484364B01770FAA08BB082AE0ED
:1049E00030E0B501A401CE010E945E23E80EF91E5D
:1049F000C501B4010E94BC369B01AC01C301B201E8
:104A00000E94A0352B013C01DA94D7CFC701DF917A
:104A1000CF91FF90EF90DF90CF90BF90AF909F909D
:104A20008F907F906F905F904F9008950C943124F9
:104A30000F931F93CF93DF93EC010E9431248C01DD
:104A4000CE010E949A22800F911FDF91CF911F917A
:104A50000F9108958F929F92AF92BF92CF92DF9263
:104A6000EF92FF920F931F93CF93DF937C018B0103
:104A70006C0182E0C80ED11C4701E5E08E0E911C4E
:104A8000C0E0D0E0F60161916F014AE050E0C8015A
:104A90000E94E5235C016EE2C8010E9489228A0D12
:104AA0009B1DC80FD91FC814D90461F74AE050E014
:104AB000F7016581C8010E94E5238C0F9D1FDF91DE
:104AC000CF911F910F91FF90EF90DF90CF90BF900B
:104AD000AF909F908F90089529E939E0FC013183D0
:104AE0002083128213821482158208950F93FC0191
:104AF00089E999E0918380836283438324830583DA
:104B00000F91089529E939E0FC0131832083428324
:104B1000538364837583089529E939E0FC01318367
:104B20002083FB014081518162817381FC014283BA
:104B30005383648375830895FB01408151816281B1
:104B40007381FC0142835383648375830895FC0160
:104B5000428353836483758308959B01BC016E5F18
:104B60007F4F44E050E0C9010E94B53A21E0892B13
:104B700009F020E0822F08958F929F92AF92BF920A
:104B8000CF92DF92EF92FF920F931F93CF93DF9319
:104B900090E0FC01EF55FD4FA491FC01E951FD4F60
:104BA0008491662311F0BA2F01C0B0E089019A0107
:104BB0003F7090E0880F991F835D9C4F4801590119
:104BC0004FEF841A940AA40AB40AC12CD12C76019E
:104BD000FC01C591D49168816A236B131AC05FEF01
:104BE000C51AD50AE50AF50AC814D904EA04FB0473
:104BF00079F745C0460157016FEF861A960AA60A53
:104C0000B60AC016D106E206F30609F438C07501EB
:104C10006401FC01C591D49168816A236B13EACFCA
:104C2000B901A8014C195D096E097F096A017B0170
:104C300020E030E0A901FC01C591D49168816A238C
:104C40006B130AC02C153D054E055F05C1F02F5FA3
:104C50003F4F4F4F5F4FEFCFA5E1B0E00E9481354E
:104C6000DC01CB014096A11DB11DBC01CD0124E0AA
:104C700096958795779567952A95D1F703C060E05B
:104C800070E0CB01DF91CF911F910F91FF90EF90DA
:104C9000DF90CF90BF90AF909F908F9008950C942D
:104CA000E3370C94E3370C9478380C947838FC0193
:104CB00081E090E02081222311F080E090E00895CF
:104CC00021E0FC0120830895089508958093010256
:104CD0000895863308F0865390917B00282F287022
:104CE000977F922B90937B0087702091010290E434
:104CF000299F90011124822B80937C0080917A005F
:104D0000806480937A0080917A0086FDFCCF809148
:104D100078002091790090E0922B08951F93CF9313
:104D2000DF93182FEB0161E00E94FF12209711F42E
:104D300060E004C0CF3FD10539F461E0812FDF91FD
:104D4000CF911F910C943B13E12FF0E0E55AFD4FFA
:104D5000E4914E2F50E0FA013197E131F10508F06E
:104D600093C08827ED57FF4F8F4F0C94633584B560
:104D7000806884BDC7BD8DC084B5806284BDC8BD58
:104D800088C080918000806880938000D0938900E3
:104D9000C09388007EC080918000806280938000F4
:104DA000D0938B00C0938A0074C08091B00080685B
:104DB0008093B000C093B3006CC08091B00080625B
:104DC0008093B000C093B40064C08091900080686C
:104DD00080939000D0939900C09398005AC080911E
:104DE0009000806280939000D0939B00C0939A00C3
:104DF00050C080919000886080939000D0939D0077
:104E0000C0939C0046C08091A00080688093A00061
:104E10008091A0008F7B8093A000D093A900C093C5
:104E2000A80037C08091A00080628093A000D0933A
:104E3000AB00C093AA002DC08091A0008860809331
:104E4000A000D093AD00C093AC0023C0809120019E
:104E5000806880932001D0932901C093280119C054
:104E600080912001806280932001D0932B01C09318
:104E70002A010FC080912001886080932001D09387
:104E80002D01C0932C0105C0C038D1050CF055CFC1
:104E90004FCFDF91CF911F910895CF92DF92EF9284
:104EA000FF920F931F93CF93DF93F82ED62FE42E0C
:104EB00007E010E0C0E087E0C82ED12C61E08D2F24
:104EC0000E943B138F2DE1100AC00E946B139601C4
:104ED000201B310B01C0880F2A95EAF707C00E94FA
:104EE0006B13002E01C0880F0A94EAF7C82B60E00C
:104EF0008D2F0E943B130150110900F78C2FDF9179
:104F0000CF911F910F91FF90EF90DF90CF90089578
:104F1000BF92CF92DF92EF92FF920F931F93CF93A6
:104F2000DF93C82ED62EB42EC7E0D0E0022F10E0BB
:104F300087E0E82EF12CB11005C0C7018C1B9D0B3A
:104F4000980102C098018C2F02C0359527958A954B
:104F5000E2F7B901617077278C2D0E943B1361E065
:104F60008D2D0E943B1360E08D2D0E943B132197F5
:104F700010F7DF91CF911F910F91FF90EF90DF908D
:104F8000CF90BF900895FC01808191810C94783876
:104F9000CF93DF93EC0188819981009711F00E94F3
:104FA0007838198218821D821C821B821A82DF9136
:104FB000CF9108950F931F93CF93DF93EC018B0153
:104FC0006F5F7F4F888199810E946A39009731F025
:104FD000998388831B830A8381E001C080E0DF918D
:104FE000CF911F910F910895CF93DF93EC018881AA
:104FF0009981892B29F08A819B818617970760F414
:10500000CE010E94DA27882341F08C819D81892B73
:1050100019F4E881F981108281E0DF91CF91089540
:10502000EF92FF920F931F93CF93DF93EC017B01DD
:105030008A01BA010E94F427811104C0CE010E94A6
:10504000C82707C01D830C83B701888199810E94FE
:10505000FC3ACE01DF91CF911F910F91FF90EF901D
:105060000895FC011182108213821282158214822B
:1050700016826115710551F0FB0101900020E9F7DE
:105080003197AF01461B570B0C9410280895CF930E
:10509000DF93EC01FB018617970761F06081718156
:1050A0006115710529F0448155810E94102802C0C4
:1050B0000E94C827CE01DF91CF910895FC01118293
:1050C0001082138212821582148216820C94472851
:1050D000CF93DF93EC016115710559F0FB0101904D
:1050E0000020E9F73197AF01461B570B0E941028AB
:1050F00002C00E94C827CE01DF91CF910895CF93BF
:10510000DF931F921F92CDB7DEB7FC011182108290
:105110001382128215821482168269831A82BE015A
:105120006F5F7F4F0E9468280F900F90DF91CF91A3
:1051300008950F931F93CF93DF93CDB7DEB72997D1
:105140000FB6F894DEBF0FBECDBF8C01862FF801DD
:10515000118210821382128215821482168250E00C
:10516000BE016F5F7F4F90E00E94E63BBE016F5F24
:105170007F4FC8010E94682829960FB6F894DEBFB9
:105180000FBECDBFDF91CF911F910F9108950F9367
:105190001F93CF93DF93CDB7DEB762970FB6F89426
:1051A000DEBF0FBECDBF8C01CB01F8011182108292
:1051B0001382128215821482168250E0BE016F5F44
:1051C0007F4F0E946C3BBE016F5F7F4FC8010E9402
:1051D000682862960FB6F894DEBF0FBECDBFDF9190
:1051E000CF911F910F9108950F931F93CF93DF934A
:1051F000CDB7DEB761970FB6F894DEBF0FBECDBF57
:105200008C01CB01F8011182108213821282158267
:105210001482168250E0BE016F5F7F4F0E94E63B12
:10522000BE016F5F7F4FC8010E94682861960FB66C
:10523000F894DEBF0FBECDBFDF91CF911F910F91CC
:1052400008950F931F93CF93DF93CDB7DEB7A29747
:105250000FB6F894DEBF0FBECDBF8C01CB01BA01F3
:10526000F801118210821382128215821482168232
:1052700030E0AE014F5F5F4F0E94823BBE016F5F27
:105280007F4FC8010E946828A2960FB6F894DEBF2F
:105290000FBECDBFDF91CF911F910F9108950F9356
:1052A0001F93CF93DF93CDB7DEB7A1970FB6F894D6
:1052B000DEBF0FBECDBF8C01CB01BA01F801118258
:1052C00010821382128215821482168230E0AE019F
:1052D0004F5F5F4F0E94B93BBE016F5F7F4FC801B8
:1052E0000E946828A1960FB6F894DEBF0FBECDBF0E
:1052F000DF91CF911F910F910895EF92FF920F933D
:105300001F93CF93DF93FC012481358161157105D3
:1053100011F480E019C041155105A9F07B01EC01A1
:105320008A01020F131FB8010E94F427882389F312
:10533000288139818C819D81B701820F931F0E9442
:10534000FC3A1D830C8381E0DF91CF911F910F9177
:10535000FF90EF900895FB01448155816081718138
:105360000C947D296115710551F0FB01019000201D
:10537000E9F73197AF01461B570B0C947D2980E06C
:105380000895CF93DF931F921F92CDB7DEB7698345
:105390001A8241E050E0BE016F5F7F4F0E947D297D
:1053A0000F900F90DF91CF910895EF92FF920F939E
:1053B0001F93CF93DF9300D01F92CDB7DEB77C0150
:1053C000862F4AE050E08E010F5F1F4FB80190E03A
:1053D0000E946C3BF80101900020E9F73197AF0182
:1053E000401B510BB801C7010E947D290F900F90FF
:1053F0000F900F90DF91CF911F910F91FF90EF9041
:105400000895EF92FF920F931F93CF93DF93CDB741
:10541000DEB727970FB6F894DEBF0FBECDBF7C0175
:10542000CB014AE050E08E010F5F1F4FB8010E9490
:105430006C3BF80101900020E9F73197AF01401B68
:10544000510BB801C7010E947D2927960FB6F89429
:10545000DEBF0FBECDBFDF91CF911F910F91FF90A7
:10546000EF900895EF92FF920F931F93CF93DF93E6
:1054700000D000D0CDB7DEB77C01CB014AE050E0D0
:105480008E010F5F1F4FB8010E94E63BF8010190AB
:105490000020E9F73197AF01401B510BB801C7015C
:1054A0000E947D2926960FB6F894DEBF0FBECDBFB1
:1054B000DF91CF911F910F91FF90EF900895EF92A0
:1054C000FF920F931F93CF93DF93CDB7DEB72C9747
:1054D0000FB6F894DEBF0FBECDBF7C01CB01BA0181
:1054E0002AE030E08E010F5F1F4FA8010E94823B2F
:1054F000F80101900020E9F73197AF01401B510BF3
:10550000B801C7010E947D292C960FB6F894DEBF22
:105510000FBECDBFDF91CF911F910F91FF90EF9004
:105520000895EF92FF920F931F93CF93DF93CDB720
:10553000DEB72B970FB6F894DEBF0FBECDBF7C0150
:10554000CB01BA012AE030E08E010F5F1F4FA801A6
:105550000E94B93BF80101900020E9F73197AF01B3
:10556000401B510BB801C7010E947D292B960FB635
:10557000F894DEBF0FBECDBFDF91CF911F910F9189
:10558000FF90EF900895CF93DF93EC01FB014481EE
:105590005581608171810E947D29811103C0CE01F6
:1055A0000E94C827CE01DF91CF910895CF93DF935A
:1055B000EC016115710561F0FB0101900020E9F734
:1055C0003197AF01461B570B0E947D29811103C003
:1055D000CE010E94C827CE01DF91CF910895CF93CD
:1055E000DF93EC010E94C129811103C0CE010E940A
:1055F000C827CE01DF91CF910895CF93DF93EC01BF
:105600000E94D529811103C0CE010E94C827CE0176
:10561000DF91CF910895CF93DF93EC010E94012A8F
:10562000811103C0CE010E94C827CE01DF91CF9126
:105630000895CF93DF93EC010E94322A811103C0B9
:10564000CE010E94C827CE01DF91CF910895CF935C
:10565000DF93EC010E945F2A811103C0CE010E94FA
:10566000C827CE01DF91CF910895CF93DF93EC014E
:105670000E94912A811103C0CE010E94C827CE0149
:10568000DF91CF910895CF93DF93DC01ED91FC91F1
:10569000EB01A881B981309711F01097C9F41097E8
:1056A00059F0EB012C813D81232B31F08C9190E05E
:1056B00091958195910914C0309781F0DC01149681
:1056C0008D919C911597892B49F0808190E008C0BD
:1056D000BD01CF01DF91CF910C94F33A80E090E0CF
:1056E000DF91CF910895FC0144815581FB01248114
:1056F00035814217530729F40E94432B21E0892B5F
:1057000009F020E0822F0895FC0124813581232BAC
:1057100031F421E061157105A1F0FB0108C0FC0125
:10572000808191816115710531F421E0FC01808156
:10573000882339F005C00E94F33A21E0892B09F053
:1057400020E0822F08950E94432B892F881F8827ED
:10575000881F08950E94432B21E0181619060CF0AB
:1057600020E0822F08950E94432B21E0181619068D
:105770000CF420E0822F08950E94432B892F8095FE
:10578000881F8827881F0895EF92FF920F931F9319
:10579000CF93DF938617970729F1FC012481358188
:1057A000FB014481558124173507F1F4232BD1F0F7
:1057B000DC01CD91DC91008111818991882391F0E8
:1057C000082E000C990B0E94A13A7C01F8018191EE
:1057D0008F01082E000C990B0E94A13AE816F906D9
:1057E00061F302C081E001C080E0DF91CF911F91A1
:1057F0000F91FF90EF900895DB011496ED91FC91CD
:105800001597DC0114962D913C9115972E1B3F0B9B
:1058100024173507A0F02D913C912115310579F021
:10582000DB016D917C916115710549F0CA01AF01F1
:10583000820F931F0E94033B21E0892B09F020E097
:10584000822F0895FC0144815581FB01248135811B
:105850004217530720F040E050E00C94FC2B80E00E
:105860000895FC0124813581FB0144815581241771
:105870003507A0F0FC0180819181009779F0FB0150
:10588000608171816115710549F0241B350B820F10
:10589000931F0E94F33A21E0892B09F020E0822F28
:1058A0000895FC01248135816217730730F48081EB
:1058B0009181FC01E60FF71F40830895FC012481CC
:1058C00035816217730720F480819181009729F454
:1058D0001092FE128EEF92E10895860F971F0895A1
:1058E000FC01248135816217730748F4808191811E
:1058F000009729F0FC01E60FF71F8081089580E0F2
:1059000008950C94702C0F931F93CF93DF93411540
:10591000510519F16115710501F1DC011496ED9144
:10592000FC9115972E173F0718F0FB01108215C048
:10593000E21BF30BEA012197EC17FD0708F4EF01D6
:105940008B01FC0160817181620F731FAE01C80180
:105950000E94113BC00FD11F1882DF91CF911F9180
:105960000F910895CF93DF93FC0124813581421775
:10597000530778F4C081D181062E000C770BCE013D
:10598000840F951F0E94E83A009719F08C1B9D0B1D
:1059900002C08FEF9FEFDF91CF91089540E050E07C
:1059A0000C94B22CCF93DF93FC01248135814217F4
:1059B000530780F4FB01DC01CD91DC9160817181A2
:1059C000CE01840F951F0E942B3B009719F08C1B72
:1059D0009D0B02C08FEF9FEFDF91CF91089540E0C4
:1059E00050E00C94D22CDF92EF92FF920F931F9312
:1059F000CF93DF93DC0114962D913C9115974217BC
:105A0000530718F08FEF9FEF1DC08C01EA0121961C
:105A1000DC01ED91FC911197EC0FFD1FD0801082FD
:105A2000ED90FC90062E000C770BC7010E94203BE6
:105A3000CE0DDF1DD882009729F3F8012081318136
:105A4000821B930BDF91CF911F910F91FF90EF90ED
:105A5000DF900895FC0144815581415051090C9417
:105A6000F32CAF92BF92CF92DF92EF92FF920F93FF
:105A70001F93CF93DF937B018A01FB014481558102
:105A80004115510561F1FC01248135812115310554
:105A900031F12417350718F10217130718F089019F
:105AA00001501109FC01A080B180C501DFEFCFEFEB
:105AB0006501C00ED11EC816D906A0F0F70160819D
:105AC00071810E942B3B009769F09C012A193B09C8
:105AD0000217130710F0D22FC32F0196ECCF8FEFD0
