:100000000C940F020C94BE310C94EF310C942032FE
:100010000C9451320C9482320C94B3320C94E4322E
:100020000C9415330C94AD170C94D5170C94FD1744
:100030000C9440020C94371D0C9440020C94400226
:100040000C9440020C9440020C9440020C94400228
:100050000C9440020C9440020C9440020C94F22C3C
:100060000C9440020C946C1E0C945C1F0C94400287
:100070000C9440020C9440020C9440020C944002F8
:100080000C9440020C9440020C9440020C944002E8
:100090000C94A01E0C949B1F0C9440020C944002E4
:1000A0000C9440020C9440020C9440020C944002C8
:1000B0000C9440020C9440020C9440020C944002B8
:1000C0000C9440020C9440020C9440020C94D41EF8
:1000D0000C94DA1F0C9440020C94081F0C94192005
:1000E0000C944002C412C712BA12BE12FE12CB12F6
:1000F000CF12D512D912DD12E312E712EB12FE1263
:10010000F112F512F9127D238223872391230A2409
:100110009B23A323AB23B523BF23C923D823E223E7
:100120000A24EC23F623002470313A3142314E3157
:100130005B317C318931B031A631A831AA31AC3183
:10014000B231B4310C9400240C945B310C943A31EC
:100150000C94D21D0C94AC310C94E3120C948723B4
:100160000C94D2330C944E310C94D6340C94BA12B5
:100170000C94C7120C94CF120C94C9230C94B03178
:100180000C94D8230C9404340C94B4310C94FE12C7
:100190000C94F1120C940A240C94E7120C94861619
:1001A0000C94FF2D0C94E21D0C94291E0C94401706
:1001B0000C94F6230C94EB120C9489310C941E1EB3
:1001C0000C946C160C94CB120C94F9120C9407221C
:1001D0000C94F5120C947C310C94A8310C94A3234C
:1001E0000C94FE1D0C94AA310C9470310C94EC23E9
:1001F0000C94C4120C94BF230C94552C0C948223A1
:100200000C949E160C94B5230C9491230C94B2314B
:100210000C94E2230C94DD120C94D9120C94D51298
:100220000C94AB230C94BE120C944B160C947D23AF
:100230000C949B230C94A6310C94423141542B43D3
:100240004E554D0D0A0066726565004C4F47494E8C
:1002500000504153530041540D0A000000090A02A6
:10026000080B0C0D0706030401000000000000004D
:10027000000000000000000000000000000000007E
:100280000000000000000011100F0000000000003E
:10029000000000000000000000000000000000005E
:1002A0000001021020200808102040102040800289
:1002B00001020108040201010204081020408080AC
:1002C0004020100804020180040201804020100830
:1002D0000402010804020101020408102040800108
:1002E00002040810204080050505050705080808D8
:1002F00008020202020A0A080804040404010101B7
:1003000001010101010303030303030303040707BE
:10031000070C0C0C0C0C0C0C0C020202020606065C
:1003200006060606060B0B0B0B0B0B0B0B00002037
:10033000002300260029002C002F003200000100BD
:100340000003010601090100002200250028002BFE
:10035000002E003100340002010000050108010BED
:100360000100002100240027002A002D0030003366
:100370000001010000040107010A0100C20100019F
:1003800000110011000C0000E100000A002500250A
:1003900000210000960000190039003900360012D3
:1003A0007A00001F004600460044008070000022D2
:1003B000004D004D004A00004B00003600750075EE
:1003C000007200403800004A009C009C00990080A8
:1003D0002500007200EC00EC00E900C0120000E90A
:1003E00000DA01DA01D70160090000D701B603B6CF
:1003F00003B303B0040000B3036E076E076B075826
:100400000200006E07DC0EDC0ED80E2C010000DCB2
:100410000EC11DC11DBE1D02D2330434D6341124B9
:100420001FBECFEFD1E2DEBFCDBF00E00CBF19E0B1
:10043000A0E0B2E0EAE2FEE700E00BBF02C00790F6
:100440000D92AC39B107D9F723E1ACE9B9E001C0AD
:100450001D92AF31B207E1F712E0CFE0D2E000E049
:1004600006C021970109802FFE010E946335CC3020
:10047000D10780E00807A9F70E9446330C94133F88
:100480000C9400002091110A222361F0662329F0C8
:10049000BC0186EB9EE00C94B82EBC0186EB9EE07E
:1004A0000C944A2E08950895CF92DF92EF92FF9216
:1004B0000F931F93CF93DF93CDB7DEB7CF52D540C5
:1004C0000FB6F894DEBF0FBECDBF6CE072E09E01A8
:1004D0002F5F3F4F7901C9010E94F72461E0C701F6
:1004E0000E944202C7010E9489248E010F5D1C4FA9
:1004F00067E172E0C8010E94FC3A67E07AE0C80157
:100500000E94DD3A6FE172E0C8010E94DD3A69E8BD
:100510007CE0C8010E94DD3A6FE172E0C8010E94F0
:10052000DD3A66E17AE0C8010E94DD3AF801019007
:100530000020E9F7CF01801B910B01969F938F93C9
:1005400081E292E09F938F936E013FEDC31A3AEFE1
:10055000D30ADF92CF920E940B3C86E292E09F93F7
:100560008F9386E592E09F938F938EE692E09F9320
:100570008F9388E892E09F938F93FF92EF920E946F
:100580000B3C6AE972E0C7010E94DD3AB601C7017F
:100590000E94DD3A6BEA72E0C7010E94DD3AB801C1
:1005A000C7010E94DD3A6DEA72E0C7010E94DD3AA0
:1005B00060EB72E0CE01875D9A4F0E94F72461E004
:1005C000CE01875D9A4F0E944202CE01875D9A4F0D
:1005D0000E948924B701CE01875D9A4F0E94F724BB
:1005E00061E0CE01875D9A4F0E944202CE01875D95
:1005F0009A4F0E94892464EF71E080E090E00E94AD
:100600006D2D0CE41DE125E030E040E050E064E5B4
:1006100075E08EEB92E00E94E2100FB6F894DEBF18
:100620000FBECDBF811103C06BEC72E07EC064EFE2
:1006300071E080E090E00E946D2DC7010E94E90FFB
:1006400064EF71E080E090E00E946D2D0E9429101F
:1006500068E873E180E090E00E946D2D60E072E058
:10066000C7010E94C50F28EB3BE04AE050E060E084
:1006700072E0C7010E94280F6EED72E0CE01875D27
:100680009A4F0E94F72461E0CE01875D9A4F0E9445
:100690004202CE01875D9A4F0E948924B701CE01A4
:1006A000875D9A4F0E94F72461E0CE01875D9A4FE3
:1006B0000E944202CE01875D9A4F0E9489246AED12
:1006C00072E0CE01875D9A4F0E94F72461E0CE016F
:1006D000875D9A4F0E944202CE01875D9A4F0E9429
:1006E000892460ED77E080E090E00E946D2D67EE58
:1006F00072E0C7010E942B3B892B19F06FEE72E06C
:1007000014C061E073E0CE01875D9A4F0E94F72428
:1007100061E0CE01875D9A4F0E944202CE01875D63
:100720009A4F0E9489246FE073E0CE01875D9A4F53
:100730000E94F72461E0CE01875D9A4F0E94420239
:10074000CE01875D9A4F0E948924C15DDA4F0FB6B2
:10075000F894DEBF0FBECDBFDF91CF911F910F91F7
:10076000FF90EF90DF90CF90089508950895089539
:1007700008950895089560E070E08FEF92E10E947F
:10078000EB2C805D8093070A61E070E08FEF92E1CF
:100790000E94EB2C805D8093080A62E070E08FEF8E
:1007A00092E10E94EB2C805D8093090A10920A0A64
:1007B0008091110A8823C1F06FE173E086EB9EE01F
:1007C0000E947F2E6091070A86EB9EE00E94812E98
:1007D0006091080A86EB9EE00E94812E6091090AD2
:1007E00086EB9EE00C94DC2E08951F93CF93DF934D
:1007F000CDB7DEB727970FB6F894DEBF0FBECDBFDB
:1008000040E855E260E070E086EB9EE00E949C20AC
:1008100040E855E260E070E084E99EE00E949C20A0
:1008200084E99EE09093060A8093050A60E082E0E6
:100830000E94FF1264E670E080E090E00E946D2D5F
:1008400082E00E946B13019721F481E08093110AEA
:1008500002C01092110A60E373E0CE0101960E947B
:10086000F72461E0CE0101960E944202CE0101967A
:100870000E9489240E94BB0361E08091050A909147
:10088000060A0E94CA0E15E06AE473E0CE010196E2
:100890000E94F72460E0CE0101960E944202CE0140
:1008A00001960E94892462E370E080E090E00E945B
:1008B0006D2D115049F727960FB6F894DEBF0FBE85
:1008C000CDBFDF91CF911F9108950F931F930CE43B
:1008D0001DE125E030E040E050E067E076E08EE4A6
:1008E00093E00E94E210811102C080E02DC064EF0D
:1008F00071E080E090E00E946D2D0CE41DE125E0A8
:1009000030E040E050E067E076E08DE593E00E9463
:10091000E210882351F364EF71E080E090E00E94E0
:100920006D2D25E030E040E050E067E076E08DE6B8
:1009300093E00E94E2108823C1F264EF71E080E04E
:1009400090E00E946D2D81E01F910F910895CF934B
:10095000DF93CDB7DEB727970FB6F894DEBF0FBE93
:10096000CDBF6CE773E0CE0101960E94F72461E0F1
:10097000CE0101960E944202CE0101960E94892476
:100980000E946504882319F06FE873E002C06AEAE8
:1009900073E0CE0101960E94F72461E0CE0101963A
:1009A0000E944202CE0101960E94892427960FB62A
:1009B000F894DEBF0FBECDBFDF91CF9108950F93A6
:1009C0001F930CE41DE125E030E040E050E067E0DB
:1009D00076E085EC93E00E94E21091E0811101C085
:1009E00090E0892F1F910F910895CF93DF93CDB79A
:1009F000DEB727970FB6F894DEBF0FBECDBF64ED0C
:100A000073E0CE0101960E94F72461E0CE010196C9
:100A10000E944202CE0101960E9489240E94DF04B6
:100A200027960FB6F894DEBF0FBECDBFDF91CF91F2
:100A30000895CF92DF92EF92FF920F931F93CF937F
:100A4000DF93CDB7DEB76E970FB6F894DEBF0FBE5B
:100A5000CDBF8C010E94170F8FEE93E00E94E90F2B
:100A60006AE170E0CE0101960E94C50F2CED35E0E1
:100A700045E050E06AE170E0CE0101960E94280F47
:100A800067EF73E0CE0101960E942B3B009791F136
:100A900060E270E00E94E83A7C016C018FEFC81AB6
:100AA000D80A6CE270E0C6010E94E83ACD28C9F08D
:100AB0004E2DF7012E2F241B319630E0E817F90751
:100AC00048F45081ABE1B0E0AC0FBD1FA20FB31FE3
:100AD0005C93F0CFEBE1F0E0EC0FFD1FE20FF31FB2
:100AE0001082CE014B960E94533AF8019183808385
:100AF00081E001C080E06E960FB6F894DEBF0FBEB5
:100B0000CDBFDF91CF911F910F91FF90EF90DF90BC
:100B1000CF900895CF93DF93CDB7DEB729970FB667
:100B2000F894DEBF0FBECDBF6DEF73E0CE0101962E
:100B30000E94F72461E0CE0101960E944202CE019C
:100B400001960E94892419861886CE0108960E9473
:100B50001905688579854AE0CE0101960E948D25A8
:100B600061E0CE0101960E944202CE0101960E94F0
:100B7000892429960FB6F894DEBF0FBECDBFDF9152
:100B8000CF9108950F931F93CF93DF93CDB7DEB727
:100B9000C959D1090FB6F894DEBF0FBECDBF8CE0A6
:100BA00094E00E94E90F0CE41DE125E030E040E014
:100BB00050E067E076E089E194E00E94E21088234B
:100BC00009F4E6C064EF71E080E090E00E946D2DD2
:100BD00025E030E040E050E067E076E086E294E037
:100BE0000E94E210882309F4D6C064EF71E080E02F
:100BF00090E00E946D2D25E030E040E050E067E09D
:100C000076E084E394E00E94E21064EF71E080E01B
:100C100090E00E946D2D25E030E040E050E067E07C
:100C200076E084E594E00E94E210882309F4B6C0DF
:100C300064EF71E080E090E00E946D2D8FE594E01C
:100C40000E94E90F60E270E0CE018F599F4F0E9431
:100C5000C50F2CED35E045E050E060E270E0CE01DC
:100C60008F599F4F0E94280F64EF71E080E090E061
:100C70000E946D2D25E030E040E050E067E076E036
:100C80008AE694E00E94E210882309F48AC064EFA7
:100C900071E080E090E00E946D2D69E774E0CE0184
:100CA0008F599F4F0E942B3B892B09F07DC08FE706
:100CB00094E00E94E90F60E177E280E090E00E941A
:100CC0006D2D60E670E0CE0101960E94C50F2CEDFF
:100CD00035E045E050E060E670E0CE0101960E940C
:100CE000280F6CEA74E0CE018D569F4F0E94F724C6
:100CF00061E0CE018D569F4F0E944202CE018D567B
:100D00009F4F0E948924BE016F5F7F4FCE018D5699
:100D10009F4F0E94F72461E0CE018D569F4F0E94A5
:100D20004202CE018D569F4F0E94892462EB74E0EF
:100D3000CE0101960E942B3B892BA9F06AEB74E04F
:100D4000CE018D569F4F0E94F72461E0CE018D5653
:100D50009F4F0E944202CE018D569F4F0E948924D0
:100D600080E090E023C067EC74E0CE018D569F4F89
:100D70000E94F72461E0CE018D569F4F0E944202EF
:100D8000CE018D569F4F0E94892489EF9FEF0EC0A0
:100D90008EEF9FEF0BC08DEF9FEF08C08CEF9FEFA2
:100DA00005C08BEF9FEF02C08AEF9FEFC756DF4F62
:100DB0000FB6F894DEBF0FBECDBFDF91CF911F916C
:100DC0000F9108950F931F93CF93DF93CDB7DEB7A5
:100DD00027970FB6F894DEBF0FBECDBF66ED74E067
:100DE000CE0101960E94F72461E0CE0101960E9497
:100DF0004202CE0101960E94892441E552E06BE453
:100E000072E086E492E00E94C2058C0197FF25C043
:100E100065EF74E0CE0101960E94F72461E0CE01F7
:100E200001960E944202CE0101960E9489244AE066
:100E3000B801CE0101960E948D2561E0CE01019698
:100E40000E944202CE0101960E94892468EE73E05E
:100E500080E090E00E946D2DD0CF6FE075E0CE0174
:100E600001960E94F72461E0CE0101960E944202A1
:100E7000CE0101960E94892427960FB6F894DEBF12
:100E80000FBECDBFDF91CF911F910F910895CF92EB
:100E9000DF92EF92FF920F931F93CF93DF93CDB723
:100EA000DEB7C750D2400FB6F894DEBF0FBECDBF3D
:100EB0006C017B01161617060CF0A3C00CE41DE1B3
:100EC00025E030E040E050E064E575E08EEB92E034
:100ED0000E94E21081110EC06BEC72E0CE0101960F
:100EE0000E94F72461E0CE0101960E944202CE01E9
:100EF00001965EC064EF71E080E090E00E946D2D8D
:100F0000C6010E94E90F64EF71E080E090E00E946A
:100F10006D2D0E94291060E072E0CE0101960E94C2
:100F2000C50F24E931E14FE050E060E072E0CE010E
:100F300001960E94280F6EED72E0CE018F5F9D4FEB
:100F40000E94F72461E0CE018F5F9D4F0E94420214
:100F5000CE018F5F9D4F0E948924BE016F5F7F4F3E
:100F6000CE018F5F9D4F0E94F72461E0CE018F5F1D
:100F70009D4F0E944202CE018F5F9D4F0E948924A7
:100F800067EE72E0CE0101960E942B3B892BA9F0FF
:100F90006FEE72E0CE018F5F9D4F0E94F72461E0FB
:100FA000CE018F5F9D4F0E944202CE018F5F9D4F09
:100FB0000E94892480E090E025C061E073E0CE01CA
:100FC0008F5F9D4F0E94F72461E0CE018F5F9D4FA0
:100FD0000E944202CE018F5F9D4F0E9489246FE0E4
:100FE00073E0CE018F5F9D4F0E94F72461E0CE0138
:100FF0008F5F9D4F0E944202CE018F5F9D4F0E94E6
:101000008924C701C95FDD4F0FB6F894DEBF0FBE5C
:10101000CDBFDF91CF911F910F91FF90EF90DF90A7
:10102000CF9008958CE094E00C94E90FEF92FF923A
:101030000F931F93CF93DF93CDB7DEB727970FB6EC
:10104000F894DEBF0FBECDBF8C017B010E94C50F9F
:101050002CED35E045E050E0B701C8010E94280FB3
:101060006EE275E0CE0101960E94F72461E0CE01A8
:1010700001960E944202CE0101960E948924B80185
:10108000CE0101960E94F72461E0CE0101960E94F4
:101090004202CE0101960E94892463E475E0CE01EC
:1010A00001960E94F72461E0CE0101960E9442025F
:1010B000CE0101960E948924F80101900020E9F7F1
:1010C000CF010197801B910B27960FB6F894DEBFD6
:1010D0000FBECDBFDF91CF911F910F91FF90EF9089
:1010E00008950F931F93CF93DF93CDB7DEB7E297A9
:1010F0000FB6F894DEBF0FBECDBF8CE392E00E9426
:10110000071062E370E0CE0101960E94C50F2CED3E
:1011100035E045E050E062E370E0CE0101960E94C8
:10112000280F69E774E0CE0101960E942B3B892BC2
:1011300019F010929C0920C066E575E0CE01019679
:101140000E942B3B8C0162E270E00E94E83A01159C
:10115000110591F0402FF8012E2F241B30E0E817E5
:10116000F90730F45191D901A456B64F5C93F4CFEE
:10117000F901E456F64F1082E2960FB6F894DEBFFE
:101180000FBECDBFDF91CF911F910F910895CF93E7
:10119000DF93CDB7DEB727970FB6F894DEBF0FBE4B
:1011A000CDBF0E9471086AE575E0CE0101960E94EC
:1011B000F72460E0CE0101960E944202CE01019622
:1011C0000E9489246CE979E0CE0101960E94F724FF
:1011D00061E0CE0101960E944202CE0101960E947A
:1011E000892427960FB6F894DEBF0FBECDBFDF91DE
:1011F000CF9108950F931F93CF93DF93CDB7DEB7B1
:10120000A0970FB6F894DEBF0FBECDBF60E270E0CE
:10121000CE0101960E94C50F03E010E08AE695E03A
:101220000E94E90F2CED35E045E050E060E270E00F
:10123000CE0101960E94280F65E775E0CE01019668
:101240000E942B3B892B59F46CE271E080E090E026
:101250000E946D2D0150110909F780E001C081E065
:10126000A0960FB6F894DEBF0FBECDBFDF91CF9131
:101270001F910F9108950F931F93CF930CE41DE1DD
:1012800025E030E040E050E067E076E082E895E07D
:101290000E94E210811102C0C0E025C00CE41DE1F3
:1012A00025E030E040E050E067E076E085EC93E058
:1012B0000E94E210882381F325E030E040E050E016
:1012C00067E076E087E895E00E94E210882321F34A
:1012D0000E94FA08C82F8823F9F268EB7BE080E0CF
:1012E00090E00E946D2D8C2FCF911F910F9108954A
:1012F000CF93DF93CDB7DEB727970FB6F894DEBF55
:101300000FBECDBF63E975E0CE0101960E94F724C0
:1013100061E0CE0101960E944202CE0101960E9438
:1013200089240E943B09811116C063EB75E0CE0150
:1013300001960E94F72461E0CE0101960E944202CC
:10134000CE0101960E94892464EF71E080E090E074
:101350000E946D2DE6CF66EC75E0CE0101960E94ED
:10136000F72461E0CE0101960E944202CE0101966F
:101370000E94892427960FB6F894DEBF0FBECDBF1A
:10138000DF91CF910895CF93DF93EC0165ED75E088
:101390000E942B3B892B31F09A8981E0913419F01E
:1013A000963509F080E0DF91CF910895CF93DF93D8
:1013B000CDB7DEB727970FB6F894DEBF0FBECDBF0F
:1013C0006CED75E0CE0101960E94F72460E0CE013D
:1013D00001960E944202CE0101960E9489240E9439
:1013E000A91D4AE0BC01CE0101960E948D2561E055
:1013F000CE0101960E944202CE0101960E948924EC
:1014000027960FB6F894DEBF0FBECDBFDF91CF9108
:101410000895CF93DF93CDB7DEB7C058D1090FB68B
:10142000F894DEBF0FBECDBF88EE95E00E94E90FB5
:101430002CED35E04AE050E060E870E0CE01019626
:101440000E94280F67EF75E0CE0101960E942B3BAA
:1014500021E0892B09F420E0822FC058DF4F0FB61E
:10146000F894DEBF0FBECDBFDF91CF9108950F93EB
:101470001F930E94090A882389F00CE41DE125E0EE
:1014800030E040E050E061E076E08CE096E00E94E1
:10149000E21091E0811103C090E001C091E0892F3A
:1014A0001F910F910895CF93DF93CDB7DEB72797A4
:1014B0000FB6F894DEBF0FBECDBF6AE176E0CE0175
:1014C00001960E94F72461E0CE0101960E9442023B
:1014D000CE0101960E9489240E94370A68E873E1D0
:1014E00080E090E00E946D2D0E94120868EB7BE086
:1014F00080E090E00E946D2D27960FB6F894DEBF35
:101500000FBECDBFDF91CF9108951F93CF93DF938F
:10151000CDB7DEB727970FB6F894DEBF0FBECDBFAD
:101520008091110A882389F16DE676E0CE0101965B
:101530000E94F72461E0CE0101960E944202CE0192
:1015400001960E94892467E376E086EB9EE00E9484
:10155000CA2E6EE676E086EB9EE00E94CA2E67EA0F
:1015600076E086EB9EE00E94CA2E60EE76E086EB87
:101570009EE00E94CA2E69E177E086EB9EE00E9421
:10158000CA2E86EB9EE00E94922E1AE06AE473E077
:10159000CE0101960E94F72460E0CE0101960E94E0
:1015A0004202CE0101960E94892468EC70E080E03E
:1015B00090E00E946D2D115049F76DE676E0CE0166
:1015C00001960E94F72461E0CE0101960E9442023A
:1015D000CE0101960E94892427960FB6F894DEBFAB
:1015E0000FBECDBFDF91CF911F9108950F931F9331
:1015F000CF93DF9384E99EE00E941E1EC0E0D0E0FE
:1016000011E002E08091140A9091150ADC01ED913D
:10161000FC910480F581E02D1995892BC9F080910A
:10162000140A9091150ADC01ED91FC910680F78176
:10163000E02D19959091130A9923B1F02091120A87
:101640003FEF320F3093120A222341F0843211F41B
:1016500090E022C0FE01E555F64F1AC01092130A21
:10166000C555D64F188218C0843251F0FE01E55599
:10167000F64F8A3251F41093130A0093120A08C0ED
:101680008093AB09C1E0D0E0BDCFC835D10518F4D7
:1016900080832196B7CF1082892FDF91CF911F9140
:1016A0000F910895CF93DF93CDB7DEB727970FB68D
:1016B000F894DEBF0FBECDBF0E94F60A811112C0A2
:1016C00061E577E0CE0101960E94F72461E0CE014A
:1016D00001960E944202CE0101960E9489248FEF5A
:1016E0009FEF30C08BEA99E00E94C309811112C0BC
:1016F00061E677E0CE0101960E94F72461E0CE0119
:1017000001960E944202CE0101960E9489248EEF2A
:101710009FEF18C08091BD09813429F01092AB0968
:101720008DEF9FEF0FC0ABEAB9E0FD01EB5AF94036
:101730008D918A32D1F7E555F64F13821092040A43
:1017400080E090E027960FB6F894DEBF0FBECDBFC5
:10175000DF91CF910895EF92FF920F931F93CF9354
:10176000DF93CDB7DEB727970FB6F894DEBF0FBE75
:10177000CDBF00E010E063E777E0CE0101960E9464
:10178000F72461E0CE0101960E944202CE0101964B
:101790000E9489240E94520B7C01892B09F45DC0B0
:1017A0006CEB72E080E090E00E946D2D6DE676E0DB
:1017B000CE0101960E94F72461E0CE0101960E94BD
:1017C0004202CE0101960E94892463E877E0CE01AF
:1017D00001960E94F72460E0CE0101960E94420229
:1017E000CE0101960E9489244AE0B701CE010196FC
:1017F0000E948D2561E0CE0101960E944202CE0139
:1018000001960E9489246BEA79E0CE0101960E943C
:10181000F72461E0CE0101960E944202CE010196BA
:101820000E9489246DE676E0CE0101960E94F7249D
:1018300061E0CE0101960E944202CE0101960E9413
:10184000892468E873E180E090E00E946D2D0F5FCD
:101850001F4F0A30110509F08ECF68EE73E080E06B
:1018600090E00E946D2D0A30110519F06AE977E0C9
:1018700002C06CEA77E0CE0101960E94F72461E095
:10188000CE0101960E944202CE0101960E94892457
:101890006BEA79E0CE0101960E94F72461E0CE0167
:1018A00001960E944202CE0101960E948924279649
:1018B0000FB6F894DEBF0FBECDBFDF91CF911F9161
:1018C0000F91FF90EF900895CF93DF93EC0161ECBF
:1018D00077E081509F4F0E94FC3A61EC77E0CE01A7
:1018E000805F9E4F0E94FC3A61EC77E0CE01815E02
:1018F0009E4F0E94FC3A61EC77E0CE018F5D9E4FD7
:101900000E94FC3A61EC77E0CE01805D9E4F0E9420
:10191000FC3A61EC77E0CE018E5C9E4F0E94FC3A6F
:1019200061EC77E0CE01885C9E4F0E94FC3A61EC4E
:1019300077E0CE01825C9E4F0E94FC3A61EC77E03A
:10194000CE01885B9E4F0E94FC3A61EC77E0CE01AD
:101950008E5A9E4FDF91CF910C94FC3A0C94640CFC
:101960009C012E5A3E4F3F932F932CEB37E03F9331
:101970002F939C01285B3E4F3F932F9320EC37E041
:101980003F932F939C01225C3E4F3F932F9323EC78
:1019900037E03F932F939C01285C3E4F3F932F935A
:1019A00028EC37E03F932F939C012E5C3E4F3F93F2
:1019B0002F932BEC37E03F932F939C01205D3E4FFC
:1019C0003F932F932FEC37E03F932F939C012F5D94
:1019D0003E4F3F932F9324ED37E03F932F939C018D
:1019E000215E3E4F3F932F9328ED37E03F932F9397
:1019F0009C01205F3E4F3F932F932DED37E03F93A7
:101A00002F939C0121503F4F3F932F9321EE37E0BE
:101A10003F932F932FEF38E03F932F939F938F9314
:101A20000E940B3C8DB79EB78C960FB6F8949EBF64
:101A30000FBE8DBF0895FB01319680E09081292F64
:101A40002F7D2A3059F0992351F09F01261B370B27
:101A50002335310524F489273196F0CF089580E0AD
:101A60000895CF92DF92EF92FF920F931F93CF933F
:101A7000DF93CDB7DEB7C456D1090FB6F894DEBFF9
:101A80000FBECDBF8C016B01FB0101900020E9F777
:101A90003197E61BF70B30E020E0832F90E08E17A4
:101AA0009F0748F4D601A80FB91F8C918C3209F416
:101AB0002F5F3F5FF2CF2C3019F063EE77E032C03A
:101AC000D6018C91843291F065EF77E0CE010196DA
:101AD0000E94F72461E0CE0101960E944202CE01ED
:101AE00001960E9489248EEF9FEF44C1D60116967D
:101AF0008C918C3291F06AE078E0CE0101960E94E0
:101B0000F72461E0CE0101960E944202CE010196C7
:101B10000E9489248DEF9FEF2DC1E335F10590F0F0
:101B20006FE178E0CE0101960E94F72461E0CE01DA
:101B300001960E944202CE0101960E9489248FEFF5
:101B40009FEF18C1B601C8010E941B0D1F928F9311
:101B500088E398E09F938F937E01B2E6EB0EF11C31
:101B6000FF92EF920E940B3C0F900F900F900F90FE
:101B70000F900F9050E040E0A0E3652F70E0F60179
:101B800001900020E9F79F012C193D0922503109ED
:101B9000F601E60FF71F842F90E06217730710F528
:101BA000308121E0240F3C3299F461816C3281F460
:101BB000E1E0F0E0EC0FFD1FE80FF91F6083E1E0CA
:101BC000F0E0EC0FFD1FE20FF11DA0834E5F08C097
:101BD000E1E0F0E0EC0FFD1FE80FF91F3083422F2A
:101BE0005F5FCBCFA1E0B0E0AC0FBD1FA80FB91F66
:101BF00020812C936DE378E0CE0101960E94B13AEA
:101C00006DE378E080E090E00E94B13ABC01C80149
:101C100081509F4F0E94FC3A6DE378E080E090E0B5
:101C20000E94B13ABC01C801825F9E4F0E94FC3AFB
:101C30006DE378E080E090E00E94B13ABC01C80119
:101C4000805F9E4F0E94FC3A6DE378E080E090E078
:101C50000E94B13ABC01C801815E9E4F0E94FC3ACD
:101C60006DE378E080E090E00E94B13ABC01C801E9
:101C70008F5D9E4F0E94FC3A6DE378E080E090E03B
:101C80000E94B13ABC01C801805D9E4F0E94FC3A9F
:101C90006DE378E080E090E00E94B13ABC01C801B9
:101CA0008E5C9E4F0E94FC3A6DE378E080E090E00D
:101CB0000E94B13ABC01C801885C9E4F0E94FC3A68
:101CC0006DE378E080E090E00E94B13ABC01C80189
:101CD000825C9E4F0E94FC3A6DE378E080E090E0E9
:101CE0000E94B13ABC01C801885B9E4F0E94FC3A39
:101CF0006DE378E080E090E00E94B13ABC01C80159
:101D00008E5A9E4F0E94FC3A6DE378E080E090E0AE
:101D10000E94B13AFC018081D801AC5ABE4F8C932D
:101D200011961C92928111969C938381F801E95A35
:101D3000FE4F808331961082F7012081921303C0F9
:101D400091818917A9F06FE378E0CE01855A9F4F02
:101D50000E94F72461E0CE01855A9F4F0E94420203
:101D6000CE01855A9F4F0E9489248CEF9FEF02C0BD
:101D700080E090E0CC59DF4F0FB6F894DEBF0FBE85
:101D8000CDBFDF91CF911F910F91FF90EF90DF902A
:101D9000CF9008959093150A8093140A0895809126
:101DA000140A9091150ADC01ED91FC910480F581F3
:101DB000E02D19948F929F92AF92BF92CF92DF92B3
:101DC000EF92FF92CF93DF93EC010E943C2D4B01E9
:101DD0005C0128EE33E0DE010E947A356B017C0164
:101DE000C0E0D0E00E943C2DDC01CB0188199909AC
:101DF000AA09BB09C816D906EA06FB0660F464EF17
:101E000071E080E090E00E946D2D0E94CF0EEC0109
:101E1000181619063CF7CE01DF91CF91FF90EF9095
:101E2000DF90CF90BF90AF909F908F9008950E94C9
:101E3000CF0E892B61F08091140A9091150ADC0174
:101E4000ED91FC910680F781E02D1995F0CF089572
:101E50002F923F924F925F926F927F928F929F92BA
:101E6000AF92BF92CF92DF92EF92FF920F931F93A8
:101E7000CF93DF93CDB7DEB728970FB6F894DEBFC8
:101E80000FBECDBF9A8389838B017A0119010E940D
:101E90003C2D4B015C019701A8EEB3E00E946B352D
:101EA0002B013C01C12CD12C760118861F82910197
:101EB00040E050E02B833C834D835E830E94CF0E35
:101EC000892B01F18091140A9091150ADC01ED91A2
:101ED000FC910680F781E02D1995382E0E943C2D4B
:101EE0006B017C018F8198850196AF81B885E9816E
:101EF000FA81AE0FBF1F3C92801791076CF598874F
:101F00008F83DCCF2F813885201731072CF50E9475
:101F10003C2DDC01CB0188199909AA09BB09481697
:101F200059066A067B06C0F00E943C2DDC01CB01FD
:101F30008C199D09AE09BF092B813C814D815E81C1
:101F4000281739074A075B0708F0B8CFC114D10436
:101F5000E104F10409F4B2CF28960FB6F894DEBF7D
:101F60000FBECDBFDF91CF911F910F91FF90EF90EA
:101F7000DF90CF90BF90AF909F908F907F906F90A9
:101F80005F904F903F902F900895FC019F01281B78
:101F9000390B2617370714F41192F8CF0895A09142
:101FA000140AB091150AED91FC9111970190F081FE
:101FB000E02D682FCD011994A091140AB091150A53
:101FC000ED91FC9111970190F081E02D682FCD01EA
:101FD00019940F931F93CF93DF93EC018C01FE01B3
:101FE00001900020E9F73197EC1BFD0BC8018C1B19
:101FF0009D0B8E179F0730F4F80181918F010E948D
:10200000CF0FEDCFDF91CF911F910F910895CF9317
:10201000DF93FC012491EC012196222331F0FC0195
:1020200084910E94CF0FCE01F4CFDF91CF9108951C
:10203000CF93DF93EC01CE01FE012491222331F0F6
:102040002196FC0184910E94CF0FF5CFDF91CF91B3
:1020500008958AE10C94CF0F2F923F924F925F9296
:102060006F927F928F929F92AF92BF92CF92DF92A8
:10207000EF92FF920F931F93CF93DF93CDB7DEB70D
:102080002A970FB6F894DEBF0FBECDBF8C017C83BC
:102090006B837A011901FC0101900020E9F7319767
:1020A000AF01481B590B5A8349830E943C2D4B01B9
:1020B0005C019701A8EEB3E00E946B352B013C0157
:1020C000C12CD12C76011A861986910140E050E08E
:1020D0002D833E834F8358870E94CF0E892B51F169
:1020E0008091140A9091150ADC01ED91FC91068013
:1020F000F781E02D1995382EB0E28B1769F30E9415
:102100003C2D6B017C01E985FA85E00FF11F808190
:10211000381207C029853A852F5F3F4F3A872987B4
:1021200002C01A86198649855A8589819A8148177D
:10213000590741F10E943C2DDC01CB018819990916
:10214000AA09BB09481659066A067B0610F480E006
:1021500020C00E943C2DDC01CB018C199D09AE09E9
:10216000BF092D813E814F815885281739074A07BD
:102170005B0708F0B1CFC114D104E104F10409F404
:10218000ABCFE5CF4B815C81452B11F40E94170F3B
:1021900081E02A960FB6F894DEBF0FBECDBFDF9167
:1021A000CF911F910F91FF90EF90DF90CF90BF9054
:1021B000AF909F908F907F906F905F904F903F90E7
:1021C0002F900895CF92DF92EF92FF920F931F937B
:1021D000CF93DF93EB017A0169010E94E90F980127
:1021E000A601B701CE01DF91CF911F910F91FF9012
:1021F000EF90DF90CF900C942C10CF92DF92EF9263
:10220000FF920F931F93CF93DF93EB017A01690144
:102210000E9407109801A601B701CE01DF91CF916E
:102220001F910F91FF90EF90DF90CF900C942C10A6
:102230000F931F930CED15E025E030E040E050E0F7
:102240006CEE72E086E592E00E94FD101F910F9106
:102250000895CF93DF93EC016EE478E09E5F0E94D7
:10226000FC3A6EE478E0CE018B5F9D4F0E94FC3A11
:102270006EE478E0CE01865F9D4F0E94FC3A6EE4EA
:1022800078E0CE01815F9D4F0E94FC3A6EE478E0D9
:10229000CE018C5E9D4F0E94FC3A6EE478E0CE0148
:1022A000875E9D4F0E94FC3A6EE478E0CE01825E2C
:1022B0009D4F0E94FC3A6EE478E0CE018D5D9D4F0B
:1022C0000E94FC3A6EE478E0CE01885D9D4F0E944A
:1022D000FC3A6EE478E0CE01835D9D4F0E94FC3AAB
:1022E0006EE478E0CE018E5C9D4F0E94FC3A6EE475
:1022F00078E0CE01895C9D4F0E94FC3A6EE478E064
:10230000CE01845C9D4F0E94FC3A6EE478E0CE01E1
:102310008F5B9D4F0E94FC3A6EE478E0CE018A5BB1
:102320009D4F0E94FC3A6EE478E0CE01855B9D4FA4
:102330000E94FC3A6EE478E0CE01805B9D4F0E94E3
:10234000FC3A6EE478E0CE018B5A9D4F0E94FC3A35
:102350006EE478E0CE01865A9D4F0E94FC3A6EE40E
:1023600078E0CE01815A9D4F0E94FC3A6EE478E0FD
:10237000CE018C599D4F0E94FC3A6EE478E0CE016C
:1023800087599D4F0E94FC3A6EE478E0CE01825955
:102390009D4FDF91CF910C94FC3A9C0122593D4F07
:1023A0003F932F9323E538E03F932F939C012759C8
:1023B0003D4F3F932F9328E538E03F932F939C01A7
:1023C0002C593D4F3F932F932CE538E03F932F93AB
:1023D0009C01215A3D4F3F932F9320E638E03F93D5
:1023E0002F939C01265A3D4F3F932F9329E538E0C8
:1023F0003F932F939C012B5A3D4F3F932F9323E6FE
:1024000038E03F932F939C01205B3D4F3F932F93E8
:1024100028E638E03F932F939C01255B3D4F3F9387
:102420002F932DE638E03F932F939C012A5B3D4F7D
:102430003F932F9324E738E03F932F939C012F5B2A
:102440003D4F3F932F932AE738E03F932F939C0112
:10245000245C3D4F3F932F932FE738E03F932F931A
:102460009C01295C3D4F3F932F9323E838E03F9335
:102470002F939C012E5C3D4F3F932F9326E838E02D
:102480003F932F939C01235D3D4F3F932F932EE865
:1024900038E03F932F939C01285D3D4F3F932F934E
:1024A00029E838E03F932F939C012D5D3D4F3F93EA
:1024B0002F932DE838E03F932F939C01225E3D4FF0
:1024C0003F932F9321E938E03F932F939C01275EA0
:1024D0003D4F3F932F9326E938E03F932F939C0184
:1024E0002C5E3D4F3F932F932EE938E03F932F937F
:1024F0009C01215F3D4F3F932F9321EA38E03F93AA
:102500002F939C01265F3D4F3F932F9325EA38E0A0
:102510003F932F939C012B5F3D4F3F932F932AEACC
:1025200038E03F932F939C013E5F3F932F932DEA1A
:1025300038E03F932F9321EB38E03F932F939F9305
:102540008F930E940B3C8DB79EB7805A9F4F0FB65A
:10255000F8949EBF0FBE8DBF089590E0FC013197A7
:10256000E131F10508F04AC08827EE58FF4F8F4F40
:102570000C946335809180008F7703C08091800038
:102580008F7D80938000089584B58F7702C084B5D5
:102590008F7D84BD08958091B0008F7703C08091B6
:1025A000B0008F7D8093B0000895809190008F7768
:1025B00007C0809190008F7D03C080919000877F3D
:1025C0008093900008958091A0008F7707C080913C
:1025D000A0008F7D03C08091A000877F8093A00022
:1025E0000895809120018F7707C0809120018F7D11
:1025F00003C080912001877F809320010895CF93AD
:10260000DF9390E0FC01EF55FD4F2491FC01E9516F
:10261000FD4F8491882361F190E0880F991FFC01A0
:10262000EF59FC4FC591D491FC01E95BFC4FA5919A
:10263000B491611109C09FB7F894888120958223D5
:102640008883EC912E230BC0623061F49FB7F8941D
:102650003881822F809583238883EC912E2B2C93B5
:102660009FBF06C08FB7F894E8812E2B28838FBFB9
:10267000DF91CF9108951F93CF93DF93282F30E000
:10268000F901E55AFD4F8491F901EF55FD4FD491C1
:10269000F901E951FD4FC491CC23C9F0162F8111E6
:1026A0000E94AD12EC2FF0E0EE0FFF1FE95BFC4F34
:1026B000A591B4918FB7F894111105C09C91ED2F9D
:1026C000E095E92302C0EC91ED2BEC938FBFDF91F5
:1026D000CF911F910895CF93DF93282F30E0F90118
:1026E000E55AFD4F8491F901EF55FD4FD491F90161
:1026F000E951FD4FC491CC2391F081110E94AD129C
:10270000EC2FF0E0EE0FFF1FE35DFC4FA591B491BD
:10271000EC91ED2381E090E021F480E002C080E0C4
:1027200090E0DF91CF9108950F931F93CF93DF93A4
:10273000EC010E943C2D688779878A879B87E88116
:10274000F9810680F781E02DCE01199597FF17C01A
:102750000E943C2D088519852A853B85DC01CB012B
:10276000801B910BA20BB30B0C811D812E813F812D
:1027700080179107A207B30710F38FEF9FEFDF9148
:10278000CF911F910F9108950F931F93CF93DF93D4
:10279000EC010E943C2D688779878A879B87E881B6
:1027A000F9810084F185E02DCE01199597FF17C0BE
:1027B0000E943C2D088519852A853B85DC01CB01CB
:1027C000801B910BA20BB30B0C811D812E813F81CD
:1027D00080179107A207B30710F38FEF9FEFDF91E8
:1027E000CF911F910F910895CF93DF93EC01CE010C
:1027F0000E94C41397FD11C08D32910571F09C01A8
:10280000205331092A30310540F0E881F9810680F2
:10281000F781E02DCE011995EACFDF91CF91089590
:10282000FC01448355836683778308956F927F927A
:102830008F929F92AF92BF92CF92DF92EF92FF92D0
:102840000F931F93CF93DF93DB01EC91E11102C053
:1028500081E040C039014A016B015C01E12CF12C9F
:10286000C0E0D0E0C5010E949413181619068CF53B
:10287000F601EC0FFD1F2081022E000C330B821796
:10288000930711F0C0E0D0E0F601EC0FFD1F2081AE
:10289000022E000C330B8217930721F42196C815E2
:1028A000D905B0F60115110589F0F301EE0DFF1DF4
:1028B0002081022E000C330B8217930739F4BFEFEF
:1028C000EB1AFB0AE016F10668F203C0E12CF12CCA
:1028D000C9CF80E0DF91CF911F910F91FF90EF90D2
:1028E000DF90CF90BF90AF909F908F907F906F9030
:1028F00008950F931F9300E010E020E030E00E9465
:1029000016141F910F9108950F931F939A01FA01C6
:1029100001900020E9F731978F01041B150BFB0193
:1029200001900020E9F73197AF01461B570B0E9439
:1029300016141F910F91089540E050E00C948414F8
:102940008F929F92AF92BF92CF92DF92FF920F939E
:102950001F93CF93DF9300D01F92CDB7DEB78C01CA
:1029600069830E94F413FC01698197FD4CC020E04B
:1029700030E0A901F12CC62E660FDD08EC15FD052F
:10298000F1F0ED32F105C9F0CF01C0970A97B8F424
:10299000AAE0B0E00E9481354F01FF0FAA08BB08F2
:1029A000DC01CB01880D991DAA1DBB1D9C01AD0149
:1029B000205331094109510902C0FF24F394D80181
:1029C000ED91FC910680F781E02DC80129833A83BF
:1029D0004B835C831995C8010E94C413FC01C09706
:1029E00029813A814B815C810A9740F2EC15FD0503
:1029F00029F2FF2061F066277727CB01621B730B5A
:102A0000840B950B06C060E070E0CB0102C0CA01E8
:102A1000B9010F900F900F900F90DF91CF911F9100
:102A20000F91FF90DF90CF90BF90AF909F908F90CD
:102A3000089561E00C94A0144F925F926F927F9280
:102A4000BF92CF92DF92EF92FF920F931F93CF939B
:102A5000DF93EC01B62E0E94F413E82F87FD6BC0C4
:102A6000C12CD12C80E8E82E8FE3F82E412C512C7C
:102A7000320110E000E0EB1581F1ED3259F1EE3258
:102A800059F180ED8E0F8A3040F5AAE0B0E0A30145
:102A900092010E9481354E2EEE0F55086608770888
:102AA000AB01BC01440D551D661D771D2A013B017C
:102AB00080E3481A510861087108112371F02DEC68
:102AC0003CEC4CEC5DE3C701B6010E9471376B0131
:102AD0007C0102C001E001C011E0E881F9810680BB
:102AE000F781E02DCE011995CE010E94C413E82F85
:102AF00080ED8E0F8A3008F4BECFEE3209F4BBCFE2
:102B0000EB1102C0EB2DB7CFC301B201002339F0A6
:102B100090958095709561957F4F8F4F9F4F1123B2
:102B200039F00E94BC36A70196010E94713706C099
:102B30000E94BC3603C060E070E0CB01DF91CF9112
:102B40001F910F91FF90EF90DF90CF90BF907F90FB
:102B50006F905F904F90089561E00C941C15CF9298
:102B6000DF92EF92FF920F931F93CF93DF936C014D
:102B70007A018B01C0E0D0E0CE15DF0561F0C6011F
:102B80000E94941397FF02C07E0105C0F801819353
:102B90008F012196F1CFC701DF91CF911F910F9146
:102BA000FF90EF90DF90CF900895AF92BF92CF92B9
:102BB000DF92EF92FF920F931F93CF93DF93211534
:102BC0003105D1F079015C016A01C0E0D0E0062F47
:102BD000660F110BC5010E94941397FF02C0CE012E
:102BE0000DC080179107D9F3F60181936F012196EB
:102BF000CE15DF0579F7F3CF80E090E0DF91CF913C
:102C00001F910F91FF90EF90DF90CF90BF90AF900A
:102C100008950F931F93CF93DF93EC018B016DE623
:102C200076E00E94F724C8010E94941397FD05C026
:102C3000682FCE010E948726F6CFCE01DF91CF917B
:102C40001F910F910895EF92FF920F931F93CF93CF
:102C5000DF93EC017B01042F6DE676E00E94F72400
:102C6000C7010E949413002E000C110B97FD0BC09E
:102C70008017910741F0682FCE010E948726C70177
:102C80000E949413F3CFCE01DF91CF911F910F914A
:102C9000FF90EF9008952091240E3091250E281773
:102CA0003907B9F49091E20D8091E30D981789F0FE
:102CB000E091E20DF0E0EC51F24F80812091E20DC5
:102CC00030E02F5F3F4F2F7333272093E20D90E0CA
:102CD00008958FEF9FEF08952091240E3091250ED7
:102CE0002817390781F49091E20D8091E30D981730
:102CF00051F0E091E20DF0E0EC51F24F8081082EAE
:102D0000000C990B08958FEF9FEF08952091240EEA
:102D10003091250E2817390771F48091E30D209129
:102D2000E20D90E0805C9F4F821B910960E470E0AF
:102D30000E940E35089580E090E008952091240EC1
:102D40003091250E2817390739F48FB7F89410926F
:102D5000E30D1092E20D8FBF0895DC015196ED91C5
:102D6000FC915297908150968C9180958923808315
:102D700008952091240E3091250E2817390789F0E7
:102D8000FC01238D2E7F238F2FB7F8941092E30D33
:102D90001092E20D9093250E8093240E2FBF81E0B8
:102DA000089580E00895EF92FF920F931F93CF93C1
:102DB000DF93EC018B8DEE85FF859D8581FF04C03F
:102DC0008081982329F446C08081982309F042C06D
:102DD0008B899C890E94DA3388E0E82EF12C10E080
:102DE00001E08D899E890E94DA33EE85FF8590810E
:102DF0008D85892311F0102B03C0802F8095182317
:102E0000000F81E0E81AF10861F78F89988D0E9420
:102E1000DA338B8D81FD10958091E30D2091E20DC9
:102E200090E001968F73992730E08217930779F02D
:102E3000E091E30DF0E0EC51F24F10838091E30D4F
:102E400090E001968F7399278093E30D03C08B8DDB
:102E500081608B8FDF91CF911F910F91FF90EF9049
:102E60000895611102C00C94AD16DC015196ED91EC
:102E7000FC915297208150968C91822B80830895EB
:102E8000DF92EF92FF920F931F93CF93DF93EC01AA
:102E9000298D3A8D2115310529F481E090E09B833D
:102EA0008A834BC0162FDFB6F8946B8D66956170E0
:102EB0000E943117898D9A8D05960E94DA338B8D89
:102EC00098E0E92EF12C01E081FF18C0802F8123CA
:102ED00021F0CE010E94AD1604C061E0CE010E9437
:102EE0003117898D9A8D0E94DA33000F81E0E81A3C
:102EF000F10861F7CE010E94AD1618C0802F812322
:102F000029F061E0CE010E94311703C0CE010E947A
:102F1000AD16898D9A8D0E94DA33000F81E0E81A90
:102F2000F10861F761E0CE010E943117DFBE898DA3
:102F30009A8D0E94DA3321E030E0C901DF91CF9110
:102F40001F910F91FF90EF90DF900895FC01A685EF
:102F5000B7859C918585892308951F920F920FB69E
:102F60000F9211240BB60F922F933F934F935F93C1
:102F70006F937F938F939F93AF93BF93EF93FF9341
:102F80000E94E133FF91EF91BF91AF919F918F919B
:102F90007F916F915F914F913F912F910F900BBE59
:102FA0000F900FBE0F901F9018951F920F920FB6A3
:102FB0000F9211240BB60F922F933F934F935F9371
:102FC0006F937F938F939F93AF93BF93EF93FF93F1
:102FD0000E94E133FF91EF91BF91AF919F918F914B
:102FE0007F916F915F914F913F912F910F900BBE09
:102FF0000F900FBE0F901F9018951F920F920FB653
:103000000F9211240BB60F922F933F934F935F9320
:103010006F937F938F939F93AF93BF93EF93FF93A0
:103020000E94E133FF91EF91BF91AF919F918F91FA
:103030007F916F915F914F913F912F910F900BBEB8
:103040000F900FBE0F901F9018951F93CF93DF9393
:10305000EC01162F61E0812F0E94FF1261E0812FA9
:103060000E943B13612F70E0FB01EF55FD4FE4918F
:10307000E88BFB01E951FD4FE491F0E0EE0FFF1FFB
:10308000E95BFC4F859194919A8B898BDF91CF916D
:103090001F9108951F93CF93DF93EC01162F60E0EB
:1030A000812F0E94FF128B8D81FD04C061E0812F72
:1030B0000E943B131C87612F70E0FB01EF55FD4F11
:1030C000E491ED87FB01E951FD4FE491F0E0EE0F53
:1030D000FF1FE35DFC4F859194919F878E87DF9161
:1030E000CF911F9108951F93CF93DF93EC01162F7B
:1030F0001B821A8288EE93E0A0E0B0E08C839D836F
:10310000AE83BF8385E699E0998388831C8A1B8AF6
:103110001E8A1D8A188E1F8A1A8E198E8B8D8E7F9D
:1031200020FB81F98B8F642FCE010E942518612F1F
:10313000CE01DF91CF911F910C944A18CF92DF926C
:10314000EF92FF92CF93DF93EC011A8E198E188EB7
:103150001F8A1E8A1D8A8BE793E020E030E0FC0185
:10316000C590D590E590F490C416D506E606F7060E
:1031700019F54CE0429FC001439F900D1124FC01C2
:10318000E158FC4F259134913C8B2B8BFC01EF5780
:10319000FC4F259134913E8B2D8BFC01ED57FC4F5C
:1031A00025913491388F2F8BFC01EB57FC4F859183
:1031B00094919A8F898F09C02F5F3F4F0C962D30C5
:1031C000310509F0CCCF1C8A1B8A8F89988D892BF9
:1031D00009F459C08C8526EF280F243048F09EEC66
:1031E000980F943028F092EC980F983008F047C070
:1031F00090916800243018F08E53883010F081E0F0
:1032000001C084E0892B809368002C8596EF920F93
:10321000943058F08EEC820F843038F082EC820FBC
:10322000883040F0A0E0B0E007C0ABE6B0E0EBE6ED
:10323000F0E006C0ADE6B0E0883070F5EDE6F0E015
:103240008081943010F426500BC0223379F0233360
:1032500079F0243379F092EC920F983068F4292FAA
:1032600091E001C0990F2A95EAF707C098E005C0E0
:1032700094E003C092E001C091E0982B9C93898D6B
:103280009A8D0E94DA33CE01DF91CF91FF90EF90BB
:10329000DF90CF900C94B916E0E0F0E0D1CFFC01C4
:1032A000948586EF890F843048F02EEC290F243066
:1032B00028F022EC290F283030F00895EBE6F0E0FA
:1032C000ABE6B0E004C0EDE6F0E0ADE6B0E03C9186
:1032D000843018F42AEF290F0BC0923389F093330E
:1032E00089F0943389F082EC890F883078F4282FA4
:1032F00081E090E001C0880F2A95EAF7809507C029
:1033000087EF05C08BEF03C08DEF01C08EEF8323E5
:103310008083089525E639E0FC01318320830C94F5
:103320004F193F924F925F926F927F928F929F922E
:10333000AF92BF92CF92DF92EF92FF920F931F93C3
:10334000CF93DF9300D01F92CDB7DEB729013A01AA
:1033500090910002981721F09F3F09F02BC304C001
:10336000E7E1F4E0349004C180930002E7E1F4E087
:10337000E491EF3F09F41EC3E23009F480C074F514
:10338000EE2309F45BC0E13009F0F1C01092800037
:1033900010928100909181009860909381009091AB
:1033A0008100916090938100282F30E0F901E9516C
:1033B000FD4FE491F0E0EE0FFF1FE95BFC4F4591FC
:1033C00054915093440E4093430EF901EF55FD4F35
:1033D000E491E093420E33243394CCC0E43009F4FA
:1033E0009EC00CF474C0E53009F0C1C010922001F9
:1033F0001092210190912101986090932101909168
:103400002101916090932101482F50E0FA01E95188
:10341000FD4FE491F0E0EE0FFF1FE95BFC4F2591BB
:1034200034913093280E2093270EFA01EF55FD4F6B
:10343000E491E093260EB5E03B2E9CC014BC15BC75
:1034400094B5926094BD95B5916095BD282F30E0FC
:10345000F901E951FD4FE491F0E0EE0FFF1FE95B48
:10346000FC4F4591549150934B0E40934A0EF901F5
:10347000EF55FD4FE491E093490E312C7BC0109243
:10348000B0001092B1009091B00092609093B000A3
:103490009091B10091609093B100282F30E0F90134
:1034A000E951FD4FE491F0E0EE0FFF1FE95BFC4FA7
:1034B0004591549150933D0E40933C0EF901EF55C8
:1034C000FD4FE491E0933B0E52E0352E53C0109235
:1034D00090001092910090919100986090939100CB
:1034E00090919100916090939100282F30E0F90124
:1034F000E951FD4FE491F0E0EE0FFF1FE95BFC4F57
:10350000459154915093360E4093350EF901EF5585
:10351000FD4FE491E093340E23E0322E2BC0109245
:10352000A0001092A1009091A10098609093A1003A
:103530009091A10091609093A100282F30E0F901B3
:10354000E951FD4FE491F0E0EE0FFF1FE95BFC4F06
:103550004591549150932F0E40932E0EF901EF5543
:10356000FD4FE491E0932D0E04E0302E03C03E2E7B
:1035700037FC20C28B0161E00E94FF124801A12CA0
:10358000B12C832D8D7F09F0B4C060E072E18AE731
:1035900090E0A50194010E94223529833A834B8350
:1035A0005C8369017A0121E0C21AD108E108F108BF
:1035B0008FEFC816D104E104F10409F008F44CC0FF
:1035C00060E472E48FE090E0A50194010E9422354E
:1035D00069017A0191E0C91AD108E108F108E2E035
:1035E0003E1220C0FFEFCF16D104E104F10409F030
:1035F00008F4DEC160E970ED83E090E0A50194017C
:103600000E94223569017A0181E0C81AD108E108D7
:10361000F1089FEFC916D104E104F10409F0B8F5EF
:1036200083E064C0EFEFCE16D104E104F104B1F001
:10363000A8F068E478EE81E090E0A50194010E9492
:10364000223569017A01F1E0CF1AD108E108F108C9
:10365000332009F453C1A3C181E001C082E03320CB
:10366000A1F044C089819A81AB81BC812AE0B695E2
:10367000A795979587952A95D1F76C017D01F1E083
:10368000CF1AD108E108F10885E085BDA2C068E441
:1036900078EE81E090E0A50194010E942235690155
:1036A0007A0181E0C81AD108E108F1089FEFC91634
:1036B000D104E104F10409F008F41EC164E274EFDE
:1036C00080E090E0A50194010E94223569017A0111
:1036D00081E0C81AD108E108F1089FEFC916D104AA
:1036E000E104F10411F008F02BC185E08093B100F2
:1036F00070C060E072E18AE790E0A50194010E9449
:10370000223569017A01F1E0CF1AD108E108F10808
:10371000C114D10421E0E206F10488F068E478EEF7
:1037200081E090E0A50194010E94223569017A01AF
:1037300081E0C81AD108E108F10883E001C081E006
:1037400091E0391210C090918100987F892B80936D
:103750008100411451046104710409F03FC02FEF4E
:103760003FEFA90171C0E3E03E120FC090919100BC
:10377000987F892B80939100411451046104710456
:1037800069F52FEF3FEFA90181C0F4E03F120FC0B0
:103790009091A100987F892B8093A100411451043E
:1037A00061047104D9F42FEF3FEFA90181C025E036
:1037B00032120FC090912101987F892B80932101B3
:1037C000411451046104710449F42FEF3FEFA90142
:1037D00081C0411451046104710471F0D801AA0F31
:1037E000BB1FA30192010E94813528EE33E040E027
:1037F00050E00E94223503C02FEF3FEFA90182E085
:103800003816A1F1831534F0332079F091E03916A0
:10381000D9F0D0C0E4E03E1609F44AC03E16B4F137
:10382000F5E03F1609F456C0C5C0C7BC20934C0E46
:1038300030934D0E40934E0E50934F0E80916E007C
:10384000826080936E00B6C0D0928900C0928800DA
:103850002093450E3093460E4093470E5093480EEA
:1038600080916F00826080936F00A4C0C092B3000B
:1038700020933E0E30933F0E4093400E5093410EE6
:103880008091700082608093700094C0D092990003
:10389000C09298002093370E3093380E4093390E23
:1038A00050933A0E8091710082608093710082C0C3
:1038B000D092A900C092A8002093300E3093310E10
:1038C0004093320E5093330E809172008260809349
:1038D000720070C0D0922901C09228012093290E55
:1038E00030932A0E40932B0E50932C0E8091730030
:1038F0008260809373005EC084E0F8CE2FEFC21622
:10390000D104E104F104D1F0C8F062E17AE780E08B
:1039100090E0A50194010E94223569017A01E1E05D
:10392000CE1AD108E108F108FFEFCF16D104E10467
:10393000F10411F008F096CE84E0A7CE83E0A5CE86
:1039400062E17AE780E090E0A50194010E942235CF
:1039500069017A0181E0C81AD108E108F1089FEFF6
:10396000C916D104E104F104C1F0B8F089819A814B
:10397000AB81BC814AE0B695A795979587954A9506
:10398000D1F76C017D01E1E0CE1AD108E108F10820
:10399000332009F479CE87E0A9CE86E060CEEFEF40
:1039A000CE16D104E104F10409F050F684E057CEBC
:1039B00082E09CCE0F900F900F900F90DF91CF91EF
:1039C0001F910F91FF90EF90DF90CF90BF90AF903D
:1039D0009F908F907F906F905F904F903F90089551
:1039E0008230A9F028F4882349F0813051F00895FD
:1039F000843009F1E8F0853009F1089510926E00E5
:103A0000089580916F008D7F80936F00089580915D
:103A100070008D7F8093700081E08093B000809172
:103A2000B100887F84608093B1001092B300089544
:103A30001092710008951092720008951092730010
:103A40000895CF93C82F809100028C1307C0E7E13F
:103A5000F4E0E4918FEF8093000201C0EFEF8E2F2E
:103A60000E94F01C60E08C2FCF910C943B131F92AE
:103A70000F920FB60F9211240BB60F922F933F9314
:103A80004F935F936F937F938F939F93AF93BF9366
:103A9000EF93FF9380913E0E90913F0EA091400EC8
:103AA000B091410E892B8A2B8B2B51F180913B0ECB
:103AB000E0913C0EF0913D0E9081892780838091AA
:103AC0003E0E90913F0EA091400EB091410E1816FF
:103AD00019061A061B06C4F480913E0E90913F0E03
:103AE000A091400EB091410E0197A109B1098093B8
:103AF0003E0E90933F0EA093400EB093410E04C033
:103B0000809100020E94211DFF91EF91BF91AF9122
:103B10009F918F917F916F915F914F913F912F91E5
:103B20000F900BBE0F900FBE0F901F901895E09155
:103B30001D13F0911E1380E090E0309749F002963B
:103B400020813181820F931F0280F381E02DF5CF18
:103B500008950F931F93CF93DF931F921F92CDB7BA
:103B6000DEB780911B1390911C138E010F5F1F4FC6
:103B7000009729F40F5113411A8309830AC0081BC7
:103B8000190B1A8309830E94971D800F911F9A8336
:103B9000898389819A810F900F90DF91CF911F9136
:103BA0000F910895FC0124853585F901E058FF4FF8
:103BB00080819181329620813181821B930B8F7796
:103BC00099270895DC011C96ED91FC911D97DF016A
:103BD000A058BF4F2D913C91119712968D919C91B9
:103BE00011972817390739F08D919C91E80FF91F2B
:103BF000808190E008958FEF9FEF0895FC01A485E8
:103C0000B585FD01E058FF4F2081318132968081DA
:103C100091812817390779F080819181A80FB91F08
:103C20008C91208131812F5F3F4F2F773327318354
:103C3000208390E008958FEF9FEF0895FC0181A10C
:103C4000882329F0A489B5898C9186FFFBCF11A226
:103C500008950F931F93CF93DF93FC01A685B7853B
:103C60008D0100581F4FE8018881998101968F7757
:103C70009927AD014E575F4FEA012881398182179C
:103C80009307D1F3E80128813981A20FB31F6C9308
:103C9000A685B785A058BF4F11969C938E93A68991
:103CA000B7892C9181E090E0078C02C0880F991FA2
:103CB0000A94E2F7822B8C9381E081A30488F58932
:103CC000E02D80818064808381E090E0DF91CF915E
:103CD0001F910F91089508951F920F920FB60F92A2
:103CE00011240BB60F922F933F934F935F936F93D3
:103CF0007F938F939F93AF93BF93EF93FF938091A5
:103D0000C00082FD07C08091C60064E772E10E9496
:103D1000EA3302C08091C600FF91EF91BF91AF914D
:103D20009F918F917F916F915F914F913F912F91D3
:103D30000F900BBE0F900FBE0F901F901895089517
:103D40001F920F920FB60F9211240BB60F922F9362
:103D50003F934F935F936F937F938F939F93AF9313
:103D6000BF93EF93FF938091C80082FD07C08091BD
:103D7000CE006CE671E10E94EA3302C08091CE0071
:103D8000FF91EF91BF91AF919F918F917F916F9133
:103D90005F914F913F912F910F900BBE0F900FBEEF
:103DA0000F901F90189508951F920F920FB60F92C3
:103DB00011240BB60F922F933F934F935F936F9302
:103DC0007F938F939F93AF93BF93EF93FF938091D4
:103DD000D00082FD07C08091D60064E670E10E94A9
:103DE000EA3302C08091D600FF91EF91BF91AF916D
:103DF0009F918F917F916F915F914F913F912F9103
:103E00000F900BBE0F900FBE0F901F901895089546
:103E10001F920F920FB60F9211240BB60F922F9391
:103E20003F934F935F936F937F938F939F93AF9342
:103E3000BF93EF93FF938091300182FD07C0809183
:103E400036016CE57FE00E94EA3302C080913601C2
:103E5000FF91EF91BF91AF919F918F917F916F9162
:103E60005F914F913F912F910F900BBE0F900FBE1E
:103E70000F901F90189586EB9EE00E94D21D892B13
:103E800011F00E946B1E84E99EE00E94D21D892BD6
:103E900011F00E949F1E82E79EE00E94D21D892B96
:103EA00011F00E94D31E80E59EE00E94D21D892B56
:103EB00011F00C94071F08951F920F920FB60F92E6
:103EC00011240BB60F922F933F938F939F93EF93F1
:103ED000FF93209170123091711280917212909123
:103EE00073122817390731F48091C1008F7D8093B8
:103EF000C10014C0E0917212F0917312E051FE4EB5
:103F00002081809172129091731201968F77992778
:103F100090937312809372122093C600FF91EF91D9
:103F20009F918F913F912F910F900BBE0F900FBEDD
:103F30000F901F9018951F920F920FB60F92112499
:103F40000BB60F922F933F938F939F93EF93FF9313
:103F5000209168113091691180916A1190916B11D3
:103F60002817390731F48091C9008F7D8093C900EB
:103F700014C0E0916A11F0916B11E851FF4E20815D
:103F800080916A1190916B1101968F779927909388
:103F90006B1180936A112093CE00FF91EF919F9156
:103FA0008F913F912F910F900BBE0F900FBE0F90EE
:103FB0001F9018951F920F920FB60F9211240BB6F7
:103FC0000F922F933F938F939F93EF93FF932091A3
:103FD00060103091611080916210909163102817E9
:103FE000390731F48091D1008F7D8093D10014C0C6
:103FF000E0916210F0916310E052F04F20818091C7
:1040000062109091631001968F77992790936310B7
:10401000809362102093D600FF91EF919F918F9132
:104020003F912F910F900BBE0F900FBE0F901F90DE
:1040300018951F920F920FB60F9211240BB60F9284
:104040002F933F938F939F93EF93FF932091580F5C
:104050003091590F80915A0F90915B0F28173907B3
:1040600031F4809131018F7D8093310114C0E09152
:104070005A0FF0915B0FE852F14F208180915A0F57
:1040800090915B0F01968F77992790935B0F8093A8
:104090005A0F20933601FF91EF919F918F913F919D
:1040A0002F910F900BBE0F900FBE0F901F90189581
:1040B0008F929F92AF92BF92CF92DF92EF92FF9238
:1040C0000F931F93CF93DF93CDB7DEB7FC0113821D
:1040D000128288EE93E0A0E0B0E084839583A6830B
:1040E000B78385E799E091838083758764875787D5
:1040F0004687318B208B138B028BF58AE48AD78A13
:10410000C68AB18EA08E938E828E8889848F89898B
:10411000858F8A89868F8B89878F8C8980A3DF9191
:10412000CF911F910F91FF90EF90DF90CF90BF90B4
:10413000AF909F908F900895CF92DF92EF92FF9271
:104140000F931F93CF93DF93EC016A017B0141151D
:10415000514E6105710509F1EC89FD8981E090E01E
:1041600008A002C0880F991F0A94E2F7808360E0DC
:1041700079E08DE390E0A70196010E942235890144
:104180009A01015011092109310936952795179592
:104190000795980101151041A8F0EC89FD8910825E
:1041A00060E874E88EE190E0A70196010E94223554
:1041B000DA01C9010197A109B109B695A7959795AB
:1041C00087959C01E889F9893083EA89FB892083F6
:1041D00019A2EE89FF89408181E090E09C010C8C5E
:1041E00002C0220F331F0A94E2F7242B2083EE89AA
:1041F000FF8940819C010D8C02C0220F331F0A945D
:10420000E2F7242B2083EE89FF8940819C010E8CEC
:1042100002C0220F331F0A94E2F7242B2083EE8979
:10422000FF8920810F8C02C0880F991F0A94E2F742
:10423000809582238083DF91CF911F910F91FF9012
:10424000EF90DF90CF900895CF92DF92EF92FF92A0
:104250001F93CF93DF93EC016A017B01122F41156D
:10426000514E6105710509F1EC89FD8981E090E00D
:1042700008A002C0880F991F0A94E2F7808360E0CB
:1042800079E08DE390E0A70196010E942235DA01E2
:10429000C9010197A109B109B695A7959795879589
:1042A000AC01411580E15807A8F0EC89FD89108226
:1042B00060E874E88EE190E0A70196010E94223543
:1042C000BA01A901415051096109710976956795B3
:1042D00057954795E889F9895083EA89FB89408396
:1042E000E88DF98D1083EE89FF89408181E090E0AF
:1042F0009C010C8C02C0220F331F0A94E2F7242B7E
:104300002083EE89FF8940819C010D8C02C0220F21
:10431000331F0A94E2F7242B2083EE89FF89408122
:104320009C010E8C02C0220F331F0A94E2F7242B4B
:104330002083EE89FF8920810F8C02C0880F991F8E
:104340000A94E2F7809582238083DF91CF911F91B9
:10435000FF90EF90DF90CF900895CF93DF93FC0113
:1043600086859785EC01C058DF4FDC01AE57BF4F03
:10437000288139818D919C91119728173907C1F7B0
:10438000A689B7893C9181E090E0AC01048C02C021
:10439000440F551F0A94E2F7242F209523232C93D2
:1043A000A689B7893C91AC01058C02C0440F551F0A
:1043B0000A94E2F7242F209523232C93A689B7890A
:1043C0003C91AC01068C02C0440F551F0A94E2F7E1
:1043D000242F209523232C93A689B7892C91078C11
:1043E00002C0880F991F0A94E2F7809582238C936C
:1043F00084859585FC01EE57FF4F208131813297EE
:1044000031832083DF91CF91089581E008958F92C9
:104410009F92AF92BF92CF92DF92EF92FF920F9353
:104420001F93CF93DF937C018B016C0182E0C80E58
:10443000D11C4701E5E08E0E911CC0E0D0E0F601F2
:1044400061916F014AE050E0C8010E94DD2F5C01DC
:104450006EE2C8010E94812E8A0D9B1DC80FD91FD4
:10446000C814D90461F74AE050E0F7016581C8013A
:104470000E94DD2F8C0F9D1FDF91CF911F910F9117
:10448000FF90EF90DF90CF90BF90AF909F908F9074
:10449000089525E839E0FC013183208312821382DC
:1044A0001482158208950F93FC0185E899E09183A9
:1044B000808362834383248305830F91089525E8D5
:1044C00039E0FC0131832083428353836483758305
:1044D000089525E839E0FC0131832083FB01408108
:1044E000518162817381FC014283538364837583AC
:1044F0000895FB014081518162817381FC014283F7
:104500005383648375830895FC01428353836483DA
:10451000758308959B01BC016E5F7F4F44E050E0BE
:10452000C9010E94B53A21E0892B09F020E0822FD1
:1045300008958F929F92AF92BF92CF92DF92EF92A7
:10454000FF920F931F93CF93DF9390E0FC01EF5501
:10455000FD4FA491FC01E951FD4F8491662311F0B8
:10456000BA2F01C0B0E089019A013F7090E0880F36
:10457000991F835D9C4F480159014FEF841A940A9B
:10458000A40AB40AC12CD12C7601FC01C591D491A6
:1045900068816A236B131AC05FEFC51AD50AE50A52
:1045A000F50AC814D904EA04FB0479F745C04601AA
:1045B00057016FEF861A960AA60AB60AC016D106E8
:1045C000E206F30609F438C075016401FC01C591E7
:1045D000D49168816A236B13EACFB901A8014C1901
:1045E0005D096E097F096A017B0120E030E0A901C5
:1045F000FC01C591D49168816A236B130AC02C1504
:104600003D054E055F05C1F02F5F3F4F4F4F5F4F98
:10461000EFCFA5E1B0E00E948135DC01CB014096EF
:10462000A11DB11DBC01CD0124E09695879577951C
:1046300067952A95D1F703C060E070E0CB01DF9168
:10464000CF911F910F91FF90EF90DF90CF90BF908F
:10465000AF909F908F9008958093010208958633C4
:1046600008F0865390917B00282F2870977F922B1B
:1046700090937B0087702091010290E4299F900124
:104680001124822B80937C0080917A008064809337
:104690007A0080917A0086FDFCCF8091780020918D
:1046A000790090E0922B08951F93CF93DF93182FFA
:1046B000EB0161E00E94FF12209711F460E004C05A
:1046C000CF3FD10539F461E0812FDF91CF911F9168
:1046D0000C943B13E12FF0E0E55AFD4FE4914E2F8F
:1046E00050E0FA013197E131F10508F093C08827D5
:1046F000ED57FF4F8F4F0C94633584B5806884BDB0
:10470000C7BD8DC084B5806284BDC8BD88C080919E
:104710008000806880938000D0938900C0938800D7
:104720007EC080918000806280938000D0938B0057
:10473000C0938A0074C08091B00080688093B000FC
:10474000C093B3006CC08091B00080628093B000D1
:10475000C093B40064C08091900080688093900002
:10476000D0939900C09398005AC0809190008062C5
:1047700080939000D0939B00C0939A0050C080918A
:104780009000886080939000D0939D00C0939C001F
:1047900046C08091A00080688093A0008091A00016
:1047A0008F7B8093A000D093A900C093A80037C04E
:1047B0008091A00080628093A000D093AB00C09352
:1047C000AA002DC08091A00088608093A000D093A3
:1047D000AD00C093AC0023C080912001806880931D
:1047E0002001D0932901C093280119C08091200194
:1047F000806280932001D0932B01C0932A010FC0C7
:1048000080912001886080932001D0932D01C09376
:104810002C0105C0C038D1050CF055CF4FCFDF912A
:10482000CF911F910895CF92DF92EF92FF920F9355
:104830001F93CF93DF93F82ED62FE42E07E010E0DE
:10484000C0E087E0C82ED12C61E08D2F0E943B1381
:104850008F2DE1100AC00E946B139601201B310BB3
:1048600001C0880F2A95EAF707C00E946B13002E3B
:1048700001C0880F0A94EAF7C82B60E08D2F0E94D0
:104880003B130150110900F78C2FDF91CF911F913D
:104890000F91FF90EF90DF90CF900895BF92CF924D
:1048A000DF92EF92FF920F931F93CF93DF93C82E67
:1048B000D62EB42EC7E0D0E0022F10E087E0E82E1D
:1048C000F12CB11005C0C7018C1B9D0B980102C0D3
:1048D00098018C2F02C0359527958A95E2F7B9018A
:1048E000617077278C2D0E943B1361E08D2D0E9413
:1048F0003B1360E08D2D0E943B13219710F7DF9151
:10490000CF911F910F91FF90EF90DF90CF90BF90CC
:104910000895FC01808191810C947838CF93DF93C6
:10492000EC0188819981009711F00E9478381982F2
:1049300018821D821C821B821A82DF91CF910895FA
:104940000F931F93CF93DF93EC018B016F5F7F4F2A
:10495000888199810E946A39009731F09983888310
:104960001B830A8381E001C080E0DF91CF911F911A
:104970000F910895CF93DF93EC0188819981892B62
:1049800029F08A819B818617970760F4CE010E94E7
:10499000A024882341F08C819D81892B19F4E88122
:1049A000F981108281E0DF91CF910895EF92FF921B
:1049B0000F931F93CF93DF93EC017B018A01BA0120
:1049C0000E94BA24811104C0CE010E948E2407C027
:1049D0001D830C83B701888199810E94FC3ACE0126
:1049E000DF91CF911F910F91FF90EF900895FC01FF
:1049F000118210821382128215821482168261152E
:104A0000710551F0FB0101900020E9F73197AF01EA
:104A1000461B570B0C94D6240895CF93DF93EC01DB
:104A2000FB018617970761F060817181611571053F
:104A300029F0448155810E94D62402C00E948E2410
:104A4000CE01DF91CF910895FC0111821082138273
:104A500012821582148216820C940D25CF93DF9357
:104A6000EC016115710559F0FB0101900020E9F797
:104A70003197AF01461B570B0E94D62402C00E94FB
:104A80008E24CE01DF91CF910895CF93DF931F92B3
:104A90001F92CDB7DEB7FC01118210821382128201
:104AA00015821482168269831A82BE016F5F7F4F5E
:104AB0000E942E250F900F90DF91CF9108950F93B4
:104AC0001F93CF93DF93CDB7DEB729970FB6F89436
:104AD000DEBF0FBECDBF8C01862FF8011182108280
:104AE0001382128215821482168250E0BE016F5F1B
:104AF0007F4F90E00E94E63BBE016F5F7F4FC80191
:104B00000E942E2529960FB6F894DEBF0FBECDBFAA
:104B1000DF91CF911F910F9108950F931F93CF9322
:104B2000DF93CDB7DEB762970FB6F894DEBF0FBE46
:104B3000CDBF8C01CB01F801118210821382128249
:104B400015821482168250E0BE016F5F7F4F0E9473
:104B50006C3BBE016F5F7F4FC8010E942E2562969D
:104B60000FB6F894DEBF0FBECDBFDF91CF911F917E
:104B70000F9108950F931F93CF93DF93CDB7DEB7B7
:104B800061970FB6F894DEBF0FBECDBF8C01CB018D
:104B9000F801118210821382128215821482168209
:104BA00050E0BE016F5F7F4F0E94E63BBE016F5F2A
:104BB0007F4FC8010E942E2561960FB6F894DEBF84
:104BC0000FBECDBFDF91CF911F910F9108950F932D
:104BD0001F93CF93DF93CDB7DEB7A2970FB6F894AC
:104BE000DEBF0FBECDBF8C01CB01BA01F80111822F
:104BF00010821382128215821482168230E0AE0176
:104C00004F5F5F4F0E94823BBE016F5F7F4FC801C5
:104C10000E942E25A2960FB6F894DEBF0FBECDBF20
:104C2000DF91CF911F910F9108950F931F93CF9311
:104C3000DF93CDB7DEB7A1970FB6F894DEBF0FBEF6
:104C4000CDBF8C01CB01BA01F80111821082138211
:104C5000128215821482168230E0AE014F5F5F4FE0
:104C60000E94B93BBE016F5F7F4FC8010E942E2595
:104C7000A1960FB6F894DEBF0FBECDBFDF91CF91E6
:104C80001F910F910895EF92FF920F931F93CF936F
:104C9000DF93FC01248135816115710511F480E0F9
:104CA00019C041155105A9F07B01EC018A01020FE1
:104CB000131FB8010E94BA24882389F328813981FF
:104CC0008C819D81B701820F931F0E94FC3A1D8346
:104CD0000C8381E0DF91CF911F910F91FF90EF90B6
:104CE0000895FB0144815581608171810C944326B4
:104CF0006115710551F0FB0101900020E9F7319732
:104D0000AF01461B570B0C94432680E00895CF93C8
:104D1000DF931F921F92CDB7DEB769831A8241E0FD
:104D200050E0BE016F5F7F4F0E9443260F900F90AF
:104D3000DF91CF910895EF92FF920F931F93CF933E
:104D4000DF9300D01F92CDB7DEB77C01862F4AE0FB
:104D500050E08E010F5F1F4FB80190E00E946C3B46
:104D6000F80101900020E9F73197AF01401B510B8A
:104D7000B801C7010E9443260F900F900F900F902B
:104D8000DF91CF911F910F91FF90EF900895EF92D7
:104D9000FF920F931F93CF93DF93CDB7DEB7279783
:104DA0000FB6F894DEBF0FBECDBF7C01CB014AE049
:104DB00050E08E010F5F1F4FB8010E946C3BF8015D
:104DC00001900020E9F73197AF01401B510BB8016A
:104DD000C7010E94432627960FB6F894DEBF0FBE88
:104DE000CDBFDF91CF911F910F91FF90EF9008956C
:104DF000EF92FF920F931F93CF93DF9300D000D0D9
:104E0000CDB7DEB77C01CB014AE050E08E010F5FE9
:104E10001F4FB8010E94E63BF80101900020E9F71E
:104E20003197AF01401B510BB801C7010E944326C7
:104E300026960FB6F894DEBF0FBECDBFDF91CF919F
:104E40001F910F91FF90EF900895EF92FF920F93B3
:104E50001F93CF93DF93CDB7DEB72C970FB6F8949F
:104E6000DEBF0FBECDBF7C01CB01BA012AE030E02E
:104E70008E010F5F1F4FA8010E94823BF801019035
:104E80000020E9F73197AF01401B510BB801C70172
:104E90000E9443262C960FB6F894DEBF0FBECDBFFE
:104EA000DF91CF911F910F91FF90EF900895EF92B6
:104EB000FF920F931F93CF93DF93CDB7DEB72B975E
:104EC0000FB6F894DEBF0FBECDBF7C01CB01BA0197
:104ED0002AE030E08E010F5F1F4FA8010E94B93B0E
:104EE000F80101900020E9F73197AF01401B510B09
:104EF000B801C7010E9443262B960FB6F894DEBF77
:104F00000FBECDBFDF91CF911F910F91FF90EF901A
:104F10000895CF93DF93EC01FB01448155816081BB
:104F200071810E944326811103C0CE010E948E240C
:104F3000CE01DF91CF910895CF93DF93EC016115FE
:104F4000710561F0FB0101900020E9F73197AF0195
:104F5000461B570B0E944326811103C0CE010E94BD
:104F60008E24CE01DF91CF910895CF93DF93EC0192
:104F70000E948726811103C0CE010E948E24CE019B
:104F8000DF91CF910895CF93DF93EC010E949B2690
:104F9000811103C0CE010E948E24CE01DF91CF91FA
:104FA0000895CF93DF93EC010E94C726811103C0BF
:104FB000CE010E948E24CE01DF91CF910895CF9330
:104FC000DF93EC010E94F826811103C0CE010E94FC
:104FD0008E24CE01DF91CF910895CF93DF93EC0122
:104FE0000E942527811103C0CE010E948E24CE018C
:104FF000DF91CF910895CF93DF93EC010E94572763
:10500000811103C0CE010E948E24CE01DF91CF9189
:105010000895CF93DF93DC01ED91FC91EB01A88122
:10502000B981309711F01097C9F4109759F0EB013E
:105030002C813D81232B31F08C9190E091958195CD
:10504000910914C0309781F0DC0114968D919C91E8
:105050001597892B49F0808190E008C0BD01CF01F0
:10506000DF91CF910C94F33A80E090E0DF91CF9103
:105070000895FC0144815581FB012481358142174B
:10508000530729F40E94092821E0892B09F020E028
:10509000822F0895FC0124813581232B31F421E0F6
:1050A00061157105A1F0FB0108C0FC0180819181AF
:1050B0006115710531F421E0FC018081882339F00C
:1050C00005C00E94F33A21E0892B09F020E0822FED
:1050D00008950E940928892F881F8827881F08950E
:1050E0000E94092821E0181619060CF020E0822FF2
:1050F00008950E94092821E0181619060CF420E0F2
:10510000822F08950E940928892F8095881F88275B
:10511000881F0895EF92FF920F931F93CF93DF9311
:105120008617970729F1FC0124813581FB01448111
:10513000558124173507F1F4232BD1F0DC01CD91F3
:10514000DC91008111818991882391F0082E000C57
:10515000990B0E94A13A7C01F80181918F01082EE0
:10516000000C990B0E94A13AE816F90661F302C0FF
:1051700081E001C080E0DF91CF911F910F91FF90FE
:10518000EF900895DB011496ED91FC911597DC01E9
:1051900014962D913C9115972E1B3F0B2417350724
:1051A000A0F02D913C912115310579F0DB016D9135
:1051B0007C916115710549F0CA01AF01820F931FFF
:1051C0000E94033B21E0892B09F020E0822F089503
:1051D000FC0144815581FB0124813581421753072D
:1051E00020F040E050E00C94C22880E00895FC01DB
:1051F00024813581FB014481558124173507A0F0B6
:10520000FC0180819181009779F0FB0160817181BF
:105210006115710549F0241B350B820F931F0E9405
:10522000F33A21E0892B09F020E0822F0895FC0158
:10523000248135816217730730F480819181FC01EC
:10524000E60FF71F40830895FC0124813581621722
:10525000730720F480819181009729F41092FE1247
:105260008EEF92E10895860F971F0895FC01248127
:1052700035816217730748F480819181009729F086
:10528000FC01E60FF71F8081089580E008950C94DB
:1052900036290F931F93CF93DF934115510519F1D1
:1052A0006115710501F1DC011496ED91FC911597E2
:1052B0002E173F0718F0FB01108215C0E21BF30BFD
:1052C000EA012197EC17FD0708F4EF018B01FC01BF
:1052D00060817181620F731FAE01C8010E94113B92
:1052E000C00FD11F1882DF91CF911F910F910895A8
:1052F000CF93DF93FC01248135814217530778F463
:10530000C081D181062E000C770BCE01840F951F32
:105310000E94E83A009719F08C1B9D0B02C08FEF9A
:105320009FEFDF91CF91089540E050E00C947829F1
:10533000CF93DF93FC01248135814217530780F41A
:10534000FB01DC01CD91DC9160817181CE01840F84
:10535000951F0E942B3B009719F08C1B9D0B02C0E0
:105360008FEF9FEFDF91CF91089540E050E00C94D4
:105370009829DF92EF92FF920F931F93CF93DF93C1
:10538000DC0114962D913C9115974217530718F0A4
:105390008FEF9FEF1DC08C01EA012196DC01ED919A
:1053A000FC911197EC0FFD1FD0801082ED90FC90C6
:1053B000062E000C770BC7010E94203BCE0DDF1D8F
:1053C000D882009729F3F80120813181821B930B49
:1053D000DF91CF911F910F91FF90EF90DF90089593
:1053E000FC0144815581415051090C94B929AF9277
:1053F000BF92CF92DF92EF92FF920F931F93CF93C2
:10540000DF937B018A01FB014481558141155105E0
:1054100061F1FC01248135812115310531F1241719
:10542000350718F10217130718F089010150110907
:10543000FC01A080B180C501DFEFCFEF6501C00E98
:10544000D11EC816D906A0F0F701608171810E94B3
:105450002B3B009769F09C012A193B09021713079F
:1054600010F0D22FC32F0196ECCF8FEF9FEF02C029
:105470008D2F9C2FDF91CF911F910F91FF90EF9077
:10548000DF90CF90BF90AF900895FC01448155818B
:10549000FB0124813581421B530B0C94F729BF92E9
:1054A000CF92DF92EF92FF920F931F93CF93DF93F0
:1054B0007C016B018A01E9012417350720F4812F53
:1054C0008901C42FD82F6DE676E0C7010E94F7242A
:1054D000D60114968D919C91159780179107D0F065
:1054E0008C179D0708F4EC01D601ED91FC91119702
:1054F000EC0FFD1FB08010824D915C91BA01600FDE
:10550000711FC7010E942E25D601ED91FC91EC0F71
:10551000FD1FB082C701DF91CF911F910F91FF90C6
:10552000EF90DF90CF90BF900895CF93DF93EC0181
:10553000FB01248135810E944F2ACE01DF91CF915A
:105540000895DC01ED91FC91309729F408958613BC
:1055500001C04083319680818111F9CF08952F9247
:105560003F924F925F926F927F928F929F92AF92F3
:10557000BF92CF92DF92EF92FF920F931F93CF9340
:10558000DF93FC01448055804114510409F4D2C0DA
:10559000FB01648075806114710409F4CBC07A0149
:1055A0006B018C01FA01A480B580A618B708FC0134
:1055B000C081D181A114B104C1F4F601608171816F
:1055C000CE010E942B3BEC01892B09F4B3C0F701FB
:1055D0006081718144815581CE010E94C23AF701F8
:1055E00084819581C80FD91FE8CFB7FE02C04E0154
:1055F00005C0FB0120803180420143C0F60160817B
:105600007181C4010E942B3B2C01892B21F13201B5
:1056100068187908A301B401CE010E94C23AC60DF0
:10562000D71DF7016081718144815581CE010E94AF
:10563000C23AF70184819581C80FD91FF601848091
:105640009580840C951CF801848195818A0D9B1DA1
:1056500095838483D3CFB401CE01DF91CF911F9185
:105660000F91FF90EF90DF90CF90BF90AF909F9001
:105670008F907F906F905F904F903F902F900C9401
:10568000FC3AB101CE010E942B3B009731F0EC01B6
:10569000C60DD71D8A0C9B1CF4CF8414950409F405
:1056A00049C0F801828193818815990530F4B401CD
:1056B000C8010E94A0248823E9F1F80144815581A2
:1056C0004150510957FD36C0B601C8010E94F72963
:1056D000EC0197FD2FC0F80180819181F6012481B2
:1056E00035812C0F3D1F820F931FF8014481558196
:1056F000421B530BBC018A0D9B1D0E94CB3AF80143
:10570000848195818A0D9B1D9583848320813181BD
:10571000F901E80FF91F1082F80180819181F701EA
:1057200060817181448155818C0F9D1F0E94C23A16
:10573000AE01C6CFDF91CF911F910F91FF90EF90F7
:10574000DF90CF90BF90AF909F908F907F906F90A1
:105750005F904F903F902F900895CF93DF93FC017F
:10576000C081D181209751F08881882339F0082E9B
:10577000000C990B0E94A13A8993F6CFDF91CF914B
:105780000895CF93DF93FC01C081D181209751F020
:105790008881882339F0082E000C990B0E94A93AC1
:1057A0008993F6CFDF91CF910895AF92BF92CF92B8
:1057B000DF92EF92FF920F931F93CF93DF93DC0161
:1057C000CD90DC901197C114D10409F442C0149615
:1057D000CD91DC9115972097E1F18C01560175016F
:1057E000BFEFAB1ABB0AF7018081082E000C990BA2
:1057F0000E94983A892B99F72197CC0DDD1D88815D
:10580000082E000C990B0E94983A892B91F4AE0156
:105810004F5F5F4F4E195F09D80115965C934E9309
:105820001497CE14DF0450F4B701C6010E94C23AA7
:1058300005C0CE15DF0558F32197E1CFD801ED91D2
:10584000FC91119714968D919C911597E80FF91F73
:105850001082DF91CF911F910F91FF90EF90DF9019
:10586000CF90BF90AF900895FC0180819181009707
:1058700011F00C94713A60E070E0CB0108950C9443
:10588000E3370C94E3370C9478380C947838FC01A7
:1058900081E090E02081222311F080E090E00895E3
:1058A00021E0FC012083089508950895009729F0D0
:1058B000BC0180E090E00C9461390895CF93DF93B0
:1058C00000D01F92CDB7DEB7611571058105910536
:1058D00079F09B01AC0169833A834B835C830E941E
:1058E0005D3929813A814B815C810E94443503C036
:1058F00060E070E0CB010F900F900F900F90DF9160
:10590000CF910895CF92DF92EF92FF920F931F9362
:10591000621773078407950784F489019A016B0164
:105920007C01C901B8016C197D098E099F090E948B
:105930005E2C6C0D7D1D8E1D9F1D1F910F91FF9084
:10594000EF90DF90CF9008954F925F926F927F9289
:10595000AF92BF92CF92DF92EF92FF920F931F937D
:10596000CF93DF93CDB7DEB729013A019B01AC019C
:1059700024193509460957098A899B89AC89BD894B
:10598000BC01CD016A197B098C099D090E94FE3476
:10599000A801970124193509460957090E94443581
:1059A000CA01B9016A0D7B1D8C1D9D1DDF91CF9130
:1059B0001F910F91FF90EF90DF90CF90BF90AF902D
:1059C0007F906F905F904F900895089570E09B01D5
:1059D000382BC9010895CB010C94F53ECB01642FFF
:1059E0000C94FD3E1F920F920FB60F9211242F932D
:1059F0003F938F939F93AF93BF93809100139091A8
:105A00000113A0910213B09103133091081323E006
:105A1000230F2D3720F40196A11DB11D05C026E8E6
:105A2000230F0296A11DB11D20930813809300132C
:105A300090930113A0930213B09303138091041366
:105A400090910513A0910613B09107130196A11D23
:105A5000B11D8093041390930513A0930613B09384
:105A60000713BF91AF919F918F913F912F910F900D
:105A70000FBE0F901F9018952FB7F89460910013E8
:105A80007091011380910213909103132FBF089519
:105A90003FB7F8948091041390910513A0910613D9
:105AA000B091071326B5A89B05C02F3F19F00196AA
:105AB000A11DB11D3FBFBA2FA92F982F8827820F94
:105AC000911DA11DB11DBC01CD0142E0660F771FE4
:105AD000881F991F4A95D1F70895CF92DF92EF92D0
